:020000040800F2
:1000000000280020CD0D0008690D0008710D0008C2
:10001000790D0008810D0008890D0008000000001E
:10002000000000000000000000000000910D00082A
:100030009D0D000800000000A90D0008B50D000886
:10004000150E0008150E0008150E0008150E000804
:10005000150E0008150E0008150E0008150E0008F4
:10006000150E0008150E0008150E0008150E0008E4
:10007000150E0008150E0008150E0008150E0008D4
:10008000150E0008150E0008150E0008150E0008C4
:10009000150E0008150E0008150E0008150E0008B4
:1000A000150E0008150E0008150E0008150E0008A4
:1000B000150E0008150E000800000000150E0008BF
:1000C000150E00080000000000000000150E0008DA
:1000D00000000000150E0008150E000800000000CA
:1000E000150E0008150E0008150E0008000000008F
:1000F0000000000000000000000000000000000000
:0C01000000000000000000005FF808F1A3
:10010C0010B5054C237833B9044B13B10448AFF345
:10011C0000800123237010BD0C00002000000000A3
:10012C00281C000808B5034B1BB103490348AFF367
:10013C00008008BD0000000010000020281C0008F2
:10014C0080B582B000AF78607B68092B00F2BE816D
:10015C0001A252F823F000BF8D010008E101000854
:10016C003502000889020008DD020008310300088E
:10017C0085030008D90300082D0400088104000839
:10018C0000228021D04801F027F900224FF4807121
:10019C00CD4801F021F900224FF40071CA4801F05A
:1001AC001BF900224FF48061C74801F015F90022B9
:1001BC004FF40061C44801F00FF900224FF4805154
:1001CC00C14801F009F901224FF40051BE4801F079
:1001DC0003F9A5E101228021BB4801F0FDF80022C2
:1001EC004FF48071B84801F0F7F800224FF4007119
:1001FC00B54801F0F1F801224FF48061B24801F0EA
:10020C00EBF801224FF40061AF4801F0E5F8012250
:10021C004FF48051AC4801F0DFF801224FF400514B
:10022C00A94801F0D9F87BE100228021A64801F011
:10023C00D3F800224FF48071A34801F0CDF80122CD
:10024C004FF40071A04801F0C7F800224FF4806110
:10025C009D4801F0C1F800224FF400619A4801F06A
:10026C00BBF801224FF48051974801F0B5F80022F9
:10027C004FF40051944801F0AFF851E10022802175
:10028C00914801F0A9F800224FF480718E4801F0DA
:10029C00A3F800224FF400718B4801F09DF8002266
:1002AC004FF48061884801F097F801224FF4006107
:1002BC00854801F091F801224FF48051824801F0F9
:1002CC008BF800224FF400517F4801F085F827E1AC
:1002DC00012280217C4801F07FF800224FF48071CC
:1002EC00794801F079F800224FF40071764801F05A
:1002FC0073F801224FF48061734801F06DF801220C
:10030C004FF40061704801F067F800224FF48051FF
:10031C006D4801F061F800224FF400516A4801F079
:10032C005BF8FDE000228021674801F055F80122BE
:10033C004FF48071644801F04FF800224FF40071C3
:10034C00614801F049F800224FF480615E4801F0E9
:10035C0043F801224FF400615B4801F03DF80022A4
:10036C004FF48051584801F037F800224FF40051F7
:10037C00554801F031F8D3E000228021524801F0B9
:10038C002BF801224FF480714F4801F025F8002220
:10039C004FF400714C4801F01FF800224FF48061BB
:1003AC00494801F019F800224FF40061464801F069
:1003BC0013F800224FF48051434801F00DF800224D
:1003CC004FF40051404801F007F8A9E000228021C9
:1003DC003D4801F001F800224FF480713A4800F0DA
:1003EC00FBFF00224FF40071374800F0F5FF0122AB
:1003FC004FF48061344800F0EFFF01224FF40061AC
:10040C00314800F0E9FF01224FF480512E4800F0F2
:10041C00E3FF01224FF400512B4800F0DDFF7FE099
:10042C0000228021284800F0D7FF00224FF4807171
:10043C00254800F0D1FF00224FF40071224800F053
:10044C00CBFF00224FF480611F4800F0C5FF002253
:10045C004FF400611C4800F0BFFF00224FF48051A4
:10046C00194800F0B9FF00224FF40051164800F073
:10047C00B3FF55E000228021134800F0ADFF0022AD
:10048C004FF48071104800F0A7FF00224FF4007168
:10049C000D4800F0A1FF00224FF480610A4800F0E3
:1004AC009BFF01224FF40061074800F095FF0022EA
:1004BC004FF48051044800F08FFF00224FF400519C
:1004CC00014800F089FF2BE0000801400122802147
:1004DC00154800F081FF01224FF48071124800F0A2
:1004EC007BFF01224FF400710F4800F075FF0122D1
:1004FC004FF480610C4800F06FFF01224FF4006153
:10050C00094800F069FF01224FF48051064800F0C1
:10051C0063FF01224FF40051034800F05DFF00BF60
:10052C0000BF0837BD4680BD0008014080B582B0D1
:10053C0000AF78607B68092B00F2B68101A252F8FB
:10054C0023F000BF79050008CB0500081D06000844
:10055C006F060008C10600081307000865070008AD
:10056C00B7070008090800085B08000800220821EA
:10057C00CB4800F031FF00221021C94800F02CFFBD
:10058C0000224FF48041C64800F026FF00224FF4B1
:10059C000041C34800F020FF00224FF48051C148B5
:1005AC0000F01AFF00224FF40051BE4800F014FF77
:1005BC0001224FF48041BB4800F00EFF9DE1012267
:1005CC000821B74800F008FF00221021B44800F0C1
:1005DC0003FF00224FF48041B14800F0FDFE0122E0
:1005EC004FF40041AE4800F0F7FE01224FF4805169
:1005FC00AC4800F0F1FE01224FF40051A94800F084
:10060C00EBFE01224FF48041A64800F0E5FE74E1B8
:10061C0000220821A24800F0DFFE00221021A04891
:10062C0000F0DAFE01224FF480419D4800F0D4FE28
:10063C0000224FF400419A4800F0CEFE00224FF405
:10064C008051984800F0C8FE01224FF400519548A3
:10065C0000F0C2FE00224FF48041924800F0BCFE34
:10066C004BE1002208218E4800F0B6FE002210213A
:10067C008B4800F0B1FE00224FF48041884800F016
:10068C00ABFE00224FF40041854800F0A5FE01228C
:10069C004FF48051834800F09FFE01224FF400512B
:1006AC00804800F099FE00224FF480417D4800F014
:1006BC0093FE22E101220821794800F08DFE0022F0
:1006CC001021774800F088FE00224FF480417448D6
:1006DC0000F082FE01224FF40041714800F07CFED4
:1006EC0001224FF480516F4800F076FE00224FF447
:1006FC0000516C4800F070FE00224FF480416948B4
:10070C0000F06AFEF9E000220821654800F064FE62
:10071C0001221021624800F05FFE00224FF480415C
:10072C005F4800F059FE00224FF400415C4800F095
:10073C0053FE01224FF480515A4800F04DFE002226
:10074C004FF40051574800F047FE00224FF480410F
:10075C00544800F041FED0E000220821504800F03F
:10076C003BFE012210214E4800F036FE00224FF4D1
:10077C0080414B4800F030FE00224FF400414848C5
:10078C0000F02AFE00224FF48051464800F024FE6F
:10079C0000224FF40051434800F01EFE00224FF49B
:1007AC008041404800F018FEA7E0002208213C4898
:1007BC0000F012FE00221021394800F00DFE00223C
:1007CC004FF48041364800F007FE01224FF40041FF
:1007DC00334800F001FE01224FF48051314800F003
:1007EC00FBFD01224FF400512E4800F0F5FD0122D3
:1007FC004FF480412B4800F0EFFD7EE000220821F1
:10080C00274800F0E9FD00221021254800F0E4FD06
:10081C0000224FF48041224800F0DEFD00224FF40C
:10082C0000411F4800F0D8FD00224FF480511D48B4
:10083C0000F0D2FD00224FF400511A4800F0CCFD1C
:10084C0000224FF48041174800F0C6FD55E000220D
:10085C000821134800F0C0FD00221021104800F0C0
:10086C00BBFD00224FF480410D4800F0B5FD002285
:10087C004FF400410A4800F0AFFD01224FF48051C3
:10088C00084800F0A9FD00224FF40051054800F083
:10089C00A3FD00224FF48041024800F09DFD2CE0A6
:1008AC0000080140000C014001220821154800F00D
:1008BC0093FD01221021134800F08EFD01224FF40C
:1008CC008041104800F088FD01224FF400410D4892
:1008DC0000F082FD01224FF480510B4800F07CFDAA
:1008EC0001224FF40051084800F076FD01224FF42C
:1008FC008041054800F070FD00BF00BF0837BD46C1
:10090C0080BD00BF00080140000C014080B582B0E2
:10091C0000AF00F07BFA00F067F900F0A1F90923B1
:10092C007B6001233B603B68002B00F0AC803B6894
:10093C00012B40F052817B68022B4BDD0022012100
:10094C00A84800F049FD01220221A64800F044FD10
:10095C0000220421A34800F03FFD01220821A148F8
:10096C0000F03AFD002210219E4800F035FD0022D7
:10097C0020219C4800F030FD00224021994800F0D5
:10098C002BFD01228021974800F026FD00224FF418
:10099C008071944800F020FD01224FF400719148C1
:1009AC0000F01AFD00224FF480618E4800F014FD17
:1009BC0000224FF400618B4800F00EFD7B68023B77
:1009CC001846FFF7BDFB7868FFF7B0FD7B68013B6D
:1009DC007B60FFE07B68022B4CDC7B68002B49DDE5
:1009EC00002201217F4800F0F7FC002202217D4803
:1009FC0000F0F2FC012204217A4800F0EDFC012207
:100A0C000821784800F0E8FC00221021754800F01D
:100A1C00E3FC00222021734800F0DEFC0022402180
:100A2C00704800F0D9FC002280216E4800F0D4FC04
:100A3C0001224FF480716B4800F0CEFC01224FF480
:100A4C000071684800F0C8FC00224FF480616548D2
:100A5C0000F0C2FC00224FF40061624800F0BCFCC4
:100A6C007868FFF76DFB7868FFF760FD7B68013BEA
:100A7C007B60AFE07B68002B00F3AC8009237B60CC
:100A8C0000233B60A6E07B68022B4BDD0122012199
:100A9C00544800F0A1FC00220221524800F09CFCBA
:100AAC00002204214F4800F097FC002208214D48F9
:100ABC0000F092FC012210214A4800F08DFC00222B
:100ACC002021484800F088FC01224021454800F0D4
:100ADC0083FC00228021434800F07EFC00224FF46E
:100AEC008071404800F078FC00224FF400713D48C2
:100AFC0000F072FC01224FF480613A4800F06CFC6B
:100B0C0000224FF40061374800F066FC7868FFF76C
:100B1C0017FB7B68023B1846FFF708FD7B68013B1F
:100B2C007B6059E07B68022B4CDC7B68002B49DD39
:100B3C00012201212B4800F04FFC00220221294800
:100B4C0000F04AFC00220421264800F045FC00225B
:100B5C000821244800F040FC00221021214800F01C
:100B6C003BFC012220211F4800F036FC01224021D1
:100B7C001C4800F031FC002280211A4800F02CFCAB
:100B8C0000224FF48071174800F026FC00224FF42D
:100B9C000071144800F020FC00224FF480611148D1
:100BAC0000F01AFC01224FF400610E4800F014FC16
:100BBC007868FFF7C5FA7868FFF7B8FC7B68013BEB
:100BCC007B6009E07B68002B06DC09237B6001233A
:100BDC003B6001E000BF00E000BF4FF47A7000F012
:100BEC0077F9A0E6000C014080B590B000AF07F19A
:100BFC00180328220021184600F0E4FF3B1D0022B8
:100C0C001A605A609A60DA601A610223BB61012390
:100C1C00BB621023FB6200237B6307F118031846A9
:100C2C0000F0F2FB0346002B01D000F06FF80F230D
:100C3C007B600023BB600023FB6000233B6100232F
:100C4C007B613B1D0021184600F060FE0346002B23
:100C5C0001D000F05BF800BF4037BD4680BD0000FE
:100C6C0080B586B000AF07F1080300221A605A6005
:100C7C009A60DA60224B9B69214A43F0040393612A
:100C8C001F4B9B6903F004037B607B681C4B9B69C7
:100C9C001B4A43F008039361194B9B6903F008034B
:100CAC003B603B6800224FF6F871164800F094FB4D
:100CBC00002247F6FF71144800F08EFB4FF6F873D4
:100CCC00BB600123FB6000233B6102237B6107F1C6
:100CDC00080319460B4800F003FA47F6FF73BB6094
:100CEC000123FB6000233B6102237B6107F10803B6
:100CFC001946054800F0F4F900BF1837BD4680BD11
:100D0C000010024000080140000C014080B400AF0C
:100D1C0072B600BF00BFFDE780B483B000AF0E4BCE
:100D2C009B690D4A43F0010393610B4B9B6903F0E4
:100D3C0001037B607B68084BDB69074A43F08053F7
:100D4C00D361054BDB6903F080533B603B6800BF0C
:100D5C000C37BD4680BC70470010024080B400AF19
:100D6C0000BFFDE780B400AF00BFFDE780B400AF6B
:100D7C0000BFFDE780B400AF00BFFDE780B400AF5B
:100D8C0000BFFDE780B400AF00BFBD4680BC70471C
:100D9C0080B400AF00BFBD4680BC704780B400AFCC
:100DAC0000BFBD4680BC704780B500AF00F074F842
:100DBC0000BF80BD80B400AF00BFBD4680BC704793
:100DCC00FFF7F8FF0B480C490C4A002302E0D458FB
:100DDC00C4500433C4188C42F9D3094A094C00237B
:100DEC0001E013600432A242FBD300F0F3FEFFF7E4
:100DFC008DFD7047000000200C0000206C1C0008CA
:100E0C000C0000202C000020FEE7000080B500AF95
:100E1C00084B1B68074A43F010031360032000F0D3
:100E2C002BF90F2000F008F8FFF776FF0023184687
:100E3C0080BD00BF0020024080B582B000AF78605A
:100E4C00124B1A68124B1B7819464FF47A73B3FB8A
:100E5C00F1F3B2FBF3F3184600F035F90346002B1F
:100E6C0001D001230EE07B680F2B0AD80022796891
:100E7C004FF0FF3000F00BF9064A7B68136000233B
:100E8C0000E0012318460837BD4680BD0000002055
:100E9C00080000200400002080B400AF054B1B7834
:100EAC001A46054B1B681344034A136000BFBD462A
:100EBC0080BC7047080000202800002080B400AFE0
:100ECC00024B1B681846BD4680BC704728000020AA
:100EDC0080B584B000AF7860FFF7F0FFB8607B6836
:100EEC00FB60FB68B3F1FF3F05D00A4B1B781A4639
:100EFC00FB681344FB6000BFFFF7E0FF0246BB68D2
:100F0C00D31AFA689A42F7D800BF00BF1037BD4613
:100F1C0080BD00BF0800002080B485B000AF7860B1
:100F2C007B6803F00703FB600C4BDB68BB60BA68A3
:100F3C004FF6FF031340BB60FB681A02BB681343F8
:100F4C0043F0BF6343F40033BB60044ABB68D36017
:100F5C0000BF1437BD4680BC704700BF00ED00E0F9
:100F6C0080B400AF044BDB681B0A03F00703184680
:100F7C00BD4680BC704700BF00ED00E080B483B07C
:100F8C0000AF03463960FB7197F90730002B0ADB81
:100F9C003B68DAB20C4997F907301201D2B20B4414
:100FAC0083F800230AE03B68DAB20849FB7903F0C6
:100FBC000F03043B1201D2B20B441A7600BF0C375C
:100FCC00BD4680BC704700BF00E100E000ED00E0D2
:100FDC0080B489B000AFF860B9607A60FB6803F048
:100FEC000703FB61FB69C3F10703042B28BF042330
:100FFC00BB61FB690433062B02D9FB69033B00E0A0
:10100C0000237B614FF0FF32BB6902FA03F3DA4332
:10101C00BB681A407B699A404FF0FF317B6901FA3B
:10102C0003F3D9437B680B40134318462437BD4662
:10103C0080BC704780B582B000AF78607B68013BA4
:10104C00B3F1807F01D301230FE00A4A7B68013B97
:10105C0053600F214FF0FF30FFF790FF054B00223C
:10106C009A60044B07221A60002318460837BD46C5
:10107C0080BD00BF10E000E080B582B000AF7860AA
:10108C007868FFF749FF00BF0837BD4680BD80B5C3
:10109C0086B000AF0346B9607A60FB7300237B61B6
:1010AC00FFF75EFF78617A68B9687869FFF790FF9F
:1010BC00024697F90F3011461846FFF75FFF00BF45
:1010CC001837BD4680BD80B582B000AF78607868B7
:1010DC00FFF7B0FF034618460837BD4680BD000039
:1010EC0080B48BB000AF7860396000237B62002342
:1010FC003B6261E101227B6A02FA03F3FB613B680C
:10110C001B68FA691340BB61BA69FB699A4240F0EB
:10111C0050813B685B68974A93425ED0954A9342F4
:10112C0075D8954A934258D0934A93426FD8934AB4
:10113C00934252D0914A934269D8914A93424CD0EF
:10114C008F4A934263D88F4A934246D08D4A93423A
:10115C005DD8122B2AD8122B59D801A252F823F0A1
:10116C00E7110008C1110008D3110008151200087E
:10117C001B1200081B1200081B1200081B1200088F
:10118C001B1200081B1200081B1200081B1200087F
:10119C001B1200081B1200081B1200081B1200086F
:1011AC001B120008C9110008DD110008764A934291
:1011BC0013D02CE03B68DB683B6229E03B68DB68C2
:1011CC0004333B6224E03B68DB6808333B621FE07E
:1011DC003B68DB680C333B621AE03B689B68002B76
:1011EC0002D104233B6213E03B689B68012B05D1C1
:1011FC0008233B627B68FA691A6109E008233B62A9
:10120C007B68FA695A6103E000233B6200E000BF8F
:10121C00BB69FF2B01D87B6801E07B6804337B61E1
:10122C00BB69FF2B02D87B6A9B0002E07B6A083B00
:10123C009B003B617B691A680F213B6901FA03F340
:10124C00DB431A40396A3B6901FA03F31A437B69A1
:10125C001A603B685B6803F08053002B00F0A98098
:10126C004A4B9B69494A43F001039361474B9B6985
:10127C0003F00103BB60BB68454A7B6A9B080233E1
:10128C0052F82330FB607B6A03F003039B000F22B0
:10129C0002FA03F3DB43FA681340FB607B683D4AB8
:1012AC0093420DD07B683C4A934207D07B683B4A03
:1012BC00934201D1022304E0032302E0012300E066
:1012CC0000237A6A02F0030292009340FA681343F7
:1012DC00FB602F497B6A9B080233FA6841F8232094
:1012EC003B685B6803F48013002B06D02C4B9A6888
:1012FC002B49BB6913438B6006E0294B9A68BB6989
:10130C00DB43274913408B603B685B6803F4001395
:10131C00002B06D0224BDA682149BB691343CB6002
:10132C0006E01F4BDA68BB69DB431D491340CB60F9
:10133C003B685B6803F40033002B06D0184B5A68EB
:10134C001749BB6913434B6006E0154B5A68BB69E0
:10135C00DB43134913404B603B685B6803F48033F9
:10136C00002B1FD00E4B1A680D49BB6913430B6041
:10137C001FE000BF000032100000311000002210EE
:10138C00000021100000121000001110001002408B
:10139C000000014000080140000C01400010014019
:1013AC00000401400B4B1A68BB69DB43094913402D
:1013BC000B607B6A01337B623B681A687B6A22FA9A
:1013CC0003F3002B7FF496AE00BF00BF2C37BD4655
:1013DC0080BC70470004014080B483B000AF7860DB
:1013EC000B467B8013467B707B78002B03D07A886E
:1013FC007B681A6103E07B881A047B681A6100BF62
:10140C000C37BD4680BC704780B586B000AF7860A5
:10141C007B68002B01D1012372E27B681B6803F00F
:10142C000103002B00F08780924B5B6803F00C03E8
:10143C00042B0CD08F4B5B6803F00C03082B12D1E0
:10144C008C4B5B6803F48033B3F5803F0BD1894B35
:10145C001B6803F40033002B6CD07B685B68002B9B
:10146C0068D101234CE27B685B68B3F5803F06D101
:10147C00804B1B687F4A43F4803313602EE07B68FB
:10148C005B68002B0CD17B4B1B687A4A23F48033AE
:10149C001360784B1B68774A23F4802313601DE09C
:1014AC007B685B68B3F5A02F0CD1724B1B68714A3B
:1014BC0043F4802313606F4B1B686E4A43F48033F4
:1014CC0013600BE06B4B1B686A4A23F48033136088
:1014DC00684B1B68674A23F4802313607B685B6846
:1014EC00002B13D0FFF7EAFC386108E0FFF7E6FCAD
:1014FC0002463B69D31A642B01D9032300E25D4BEE
:10150C001B6803F40033002BF0D014E0FFF7D6FC7B
:10151C00386108E0FFF7D2FC02463B69D31A642B12
:10152C0001D90323ECE1534B1B6803F40033002B6C
:10153C00F0D100E000BF7B681B6803F00203002BB6
:10154C0063D04C4B5B6803F00C03002B0BD0494B66
:10155C005B6803F00C03082B1CD1464B5B6803F44F
:10156C008033002B16D1434B1B6803F00203002B76
:10157C0005D07B681B69012B01D00123C0E13D4BD9
:10158C001B6823F0F8027B685B69DB003949134365
:10159C000B603AE07B681B69002B20D0364B012294
:1015AC001A60FFF78BFC386108E0FFF787FC0246F6
:1015BC003B69D31A022B01D90323A1E12D4B1B68E4
:1015CC0003F00203002BF0D02A4B1B6823F0F80227
:1015DC007B685B69DB00274913430B6015E0264BE6
:1015EC0000221A60FFF76AFC386108E0FFF766FC1E
:1015FC0002463B69D31A022B01D9032380E11D4B10
:10160C001B6803F00203002BF0D17B681B6803F00E
:10161C000803002B3AD07B689B69002B19D0174B21
:10162C0001221A60FFF74AFC386108E0FFF746FC1C
:10163C0002463B69D31A022B01D9032360E10D4BFF
:10164C005B6A03F00203002BF0D0012000F09CFA3F
:10165C001CE00A4B00221A60FFF730FC38610FE0E7
:10166C00FFF72CFC02463B69D31A022B08D9032343
:10167C0046E100BF0010024000004242800442429A
:10168C00924B5B6A03F00203002BE9D17B681B6869
:10169C0003F00403002B00F0A6800023FB758B4B9A
:1016AC00DB6903F08053002B0DD1884BDB69874A33
:1016BC0043F08053D361854BDB6903F08053BB60EF
:1016CC00BB680123FB75824B1B6803F48073002BF2
:1016DC0018D17F4B1B687E4A43F480731360FFF76D
:1016EC00EDFB386108E0FFF7E9FB02463B69D31AD2
:1016FC00642B01D9032303E1754B1B6803F480733E
:10170C00002BF0D07B68DB68012B06D16F4B1B6A7A
:10171C006E4A43F0010313622DE07B68DB68002BFB
:10172C000CD16A4B1B6A694A23F001031362674BA5
:10173C001B6A664A23F0040313621CE07B68DB68B7
:10174C00052B0CD1614B1B6A604A43F004031362F6
:10175C005E4B1B6A5D4A43F0010313620BE05B4B6B
:10176C001B6A5A4A23F001031362584B1B6A574AEF
:10177C0023F0040313627B68DB68002B15D0FFF7A2
:10178C009DFB38610AE0FFF799FB02463B69D31ACF
:10179C0041F28832934201D90323B1E04B4B1B6ACF
:1017AC0003F00203002BEED014E0FFF787FB386147
:1017BC000AE0FFF783FB02463B69D31A41F28832F9
:1017CC00934201D903239BE0404B1B6A03F00203B5
:1017DC00002BEED1FB7D012B05D13C4BDB693B4A49
:1017EC0023F08053D3617B68DB69002B00F087808A
:1017FC00364B5B6803F00C03082B61D07B68DB690C
:10180C00022B46D1334B00221A60FFF757FB38618D
:10181C0008E0FFF753FB02463B69D31A022B01D9B0
:10182C0003236DE0294B1B6803F00073002BF0D1F0
:10183C007B681B6AB3F5803F08D1244B5B6823F4AB
:10184C0000327B689B68214913434B601F4B5B68DC
:10185C0023F474127B68196A7B685B6A0B431B491F
:10186C0013434B601B4B01221A60FFF727FB3861B7
:10187C0008E0FFF723FB02463B69D31A022B01D980
:10188C0003233DE0114B1B6803F00073002BF0D0D9
:10189C0035E0104B00221A60FFF710FB386108E0AE
:1018AC00FFF70CFB02463B69D31A022B01D9032329
:1018BC0026E0064B1B6803F00073002BF0D11EE0F2
:1018CC007B68DB69012B07D1012319E00010024072
:1018DC0000700040600042420B4B5B68FB60FB6891
:1018EC0003F480327B681B6A9A4206D1FB6803F4CE
:1018FC0070127B685B6A9A4201D0012300E00023DE
:10190C0018461837BD4680BD0010024080B584B023
:10191C0000AF786039607B68002B01D10123D0E0E7
:10192C006A4B1B6803F007033A689A4210D9674B5D
:10193C001B6823F0070265493B6813430B60634B3C
:10194C001B6803F007033A689A4201D00123B8E000
:10195C007B681B6803F00203002B20D07B681B689C
:10196C0003F00403002B05D0594B5B68584A43F431
:10197C00E06353607B681B6803F00803002B05D001
:10198C00534B5B68524A43F460535360504B5B6853
:10199C0023F0F0027B689B684D4913434B607B68D6
:1019AC001B6803F00103002B40D07B685B68012BA4
:1019BC0007D1474B1B6803F40033002B15D10123CF
:1019CC007FE07B685B68022B07D1414B1B6803F0FF
:1019DC000073002B09D1012373E03D4B1B6803F00E
:1019EC000203002B01D101236BE0394B5B6823F020
:1019FC0003027B685B68364913434B60FFF75EFA62
:101A0C00F8600AE0FFF75AFA0246FB68D31A41F273
:101A1C008832934201D9032353E02D4B5B6803F0CA
:101A2C000C027B685B689B009A42EBD1274B1B68CE
:101A3C0003F007033A689A4210D2244B1B6823F038
:101A4C00070222493B6813430B60204B1B6803F0D1
:101A5C0007033A689A4201D0012332E07B681B6885
:101A6C0003F00403002B08D0194B5B6823F4E062ED
:101A7C007B68DB68164913434B607B681B6803F07B
:101A8C000803002B09D0124B5B6823F460527B686F
:101A9C001B69DB000E4913434B6000F021F8024632
:101AAC000B4B5B681B0903F00F030A49CB5C22FA52
:101ABC0003F3094A1360094B1B681846FFF7BCF97E
:101ACC00002318461037BD4680BD00BF00200240E1
:101ADC0000100240401C0008000000200400002000
:101AEC0080B487B000AF0023FB600023BB600023F1
:101AFC007B6100237B6000233B611E4B5B68FB60BA
:101B0C00FB6803F00C03042B02D0082B03D027E056
:101B1C00194B3B6127E0FB689B0C03F00F03174A42
:101B2C00D35C7B60FB6803F48033002B10D0114B2B
:101B3C005B685B0C03F00103114AD35CBB607B68F0
:101B4C000D4A03FB02F2BB68B2FBF3F37B6104E0CA
:101B5C007B680C4A02FB03F37B617B693B6102E00F
:101B6C00054B3B6100BF3B6918461C37BD4680BC2A
:101B7C00704700BF0010024000127A00501C000891
:101B8C00601C000800093D0080B485B000AF78608F
:101B9C000A4B1B680A4AA2FB03235B0A7A6802FB06
:101BAC0003F3FB6000BFFB685A1EFA60002BF9D1EF
:101BBC0000BF00BF1437BD4680BC7047000000203A
:101BCC00D34D621003460244934200D1704703F890
:101BDC00011BF9E770B500260C4D0D4C641BA410CD
:101BEC00A64209D100F01AF800260A4D0A4C641BD3
:101BFC00A410A64205D170BD55F8043B9847013698
:101C0C00EEE755F8043B98470136F2E7641C0008F0
:101C1C00641C0008641C0008681C0008F8B500BFB0
:101C2C00F8BC08BC9E467047F8B500BFF8BC08BCB1
:041C3C009E46704709
:101C4000000000000000000001020304060708096C
:101C500002030405060708090A0B0C0D0E0F1010ED
:041C6000010200007D
:041C64003101000842
:041C68000D01000862
:0C1C6C0000127A001000000001000000CF
:0400000508000DCD15
:00000001FF
