:020000040800F2
:1000000000280020FD05000899050008A10500084A
:10001000A9050008B1050008B905000800000000A6
:10002000000000000000000000000000C105000802
:10003000CD05000800000000D9050008E50500080E
:100040004506000845060008450600084506000864
:100050004506000845060008450600084506000854
:100060004506000845060008450600084506000844
:100070004506000845060008450600084506000834
:100080004506000845060008450600084506000824
:100090004506000845060008450600084506000814
:1000A0004506000845060008450600084506000804
:1000B0004506000845060008000000004506000847
:1000C000450600080000000000000000450600088A
:1000D000000000004506000845060008000000007A
:1000E0004506000845060008450600080000000017
:1000F0000000000000000000000000000000000000
:0C01000000000000000000005FF808F1A3
:10010C0010B5054C237833B9044B13B10448AFF345
:10011C0000800123237010BD0C00002000000000A3
:10012C005814000808B5034B1BB103490348AFF33F
:10013C00008008BD000000001000002058140008CA
:10014C0080B582B000AF78607B68013B0B2B67D821
:10015C0001A252F823F000BF95010008A10100088C
:10016C00AD010008B9010008C5010008D101000863
:10017C00DD010008E9010008F50100080302000890
:10018C00110200081F02000801220121264800F07C
:10019C003BFD45E001220221234800F035FD3FE004
:1001AC0001220421204800F02FFD39E00122082112
:1001BC001D4800F029FD33E0012210211A4800F0FF
:1001CC0023FD2DE001222021174800F01DFD27E022
:1001DC0001224021144800F017FD21E0012280216A
:1001EC00114800F011FD1BE001224FF480710E4804
:1001FC0000F00AFD14E001224FF400710A4800F0EF
:10020C0003FD0DE001224FF48061074800F0FCFC77
:10021C0006E001224FF40061034800F0F5FC00BF3A
:10022C0000BF0837BD4680BD000C014080B582B0D0
:10023C0000AF78607B68013B0B2B67D801A252F8AA
:10024C0023F000BF810200088D020008990200080B
:10025C00A5020008B1020008BD020008C90200088E
:10026C00D5020008E1020008EF020008FD020008B8
:10027C000B03000800220121264800F0C5FC45E0D4
:10028C0000220221234800F0BFFC3FE000220421A1
:10029C00204800F0B9FC39E0002208211D4800F08C
:1002AC00B3FC33E0002210211A4800F0ADFC2DE025
:1002BC0000222021174800F0A7FC27E00022402153
:1002CC00144800F0A1FC21E000228021114800F02C
:1002DC009BFC1BE000224FF480710E4800F094FC54
:1002EC0014E000224FF400710A4800F08DFC0DE080
:1002FC0000224FF48061074800F086FC06E00022E3
:10030C004FF40061034800F07FFC00BF00BF0837CA
:10031C00BD4680BD000C014080B588B000AF00F038
:10032C008DF900F079F800F0B3F80723FB612A236C
:10033C00BB6120237B617B69364A82FB031252101E
:10034C00DB17D31A7B60BB69324A82FB0312521053
:10035C00DB17D31A3B607B68013B3B613B68013B7D
:10036C00FB60FB69013BBB603B69002B01D10C239B
:10037C003B61FB68002B01D10C23FB60BB68002B9D
:10038C0001D10C23BB603A693B689A4206D03A69AA
:10039C00FB699A4202D03869FFF748FFFA68FB699B
:1003AC009A4206D0FA687B689A4202D0F868FFF746
:1003BC003DFFBA683B689A4206D0BA687B689A429D
:1003CC0002D0B868FFF732FF7B693C2B04DD0123B8
:1003DC007B61BB690133BB61BB693D2B04DD012330
:1003EC00BB61FB690133FB61FB690C2B01DD012354
:1003FC00FB617868FFF7A4FE3868FFF7A1FEF86987
:10040C00FFF79EFE7B6901337B61322000F078F9A7
:10041C0091E700BF6766666680B590B000AF07F1E4
:10042C00180328220021184600F0E4FF3B1D00228F
:10043C001A605A609A60DA601A610223BB61012368
:10044C00BB621023FB6200237B6307F11803184681
:10045C0000F0F2FB0346002B01D000F06FF80F23E5
:10046C007B600023BB600023FB6000233B61002307
:10047C007B613B1D0021184600F060FE0346002BFB
:10048C0001D000F05BF800BF4037BD4680BD0000D6
:10049C0080B586B000AF07F1080300221A605A60DD
:1004AC009A60DA60224B9B69214A43F00403936102
:1004BC001F4B9B6903F004037B607B681C4B9B699F
:1004CC001B4A43F008039361194B9B6903F0080323
:1004DC003B603B6800224FF6F871164800F094FB25
:1004EC00002247F6FF71144800F08EFB4FF6F873AC
:1004FC00BB600123FB6000233B6102237B6107F19E
:10050C00080319460B4800F003FA47F6FF73BB606B
:10051C000123FB6000233B6102237B6107F108038D
:10052C001946054800F0F4F900BF1837BD4680BDE8
:10053C000010024000080140000C014080B400AFE4
:10054C0072B600BF00BFFDE780B483B000AF0E4BA6
:10055C009B690D4A43F0010393610B4B9B6903F0BC
:10056C0001037B607B68084BDB69074A43F08053CF
:10057C00D361054BDB6903F080533B603B6800BFE4
:10058C000C37BD4680BC70470010024080B400AFF1
:10059C0000BFFDE780B400AF00BFFDE780B400AF43
:1005AC0000BFFDE780B400AF00BFFDE780B400AF33
:1005BC0000BFFDE780B400AF00BFBD4680BC7047F4
:1005CC0080B400AF00BFBD4680BC704780B400AFA4
:1005DC0000BFBD4680BC704780B500AF00F074F81A
:1005EC0000BF80BD80B400AF00BFBD4680BC70476B
:1005FC00FFF7F8FF0B480C490C4A002302E0D458D3
:10060C00C4500433C4188C42F9D3094A094C002352
:10061C0001E013600432A242FBD300F0F3FEFFF7BB
:10062C007BFE7047000000200C0000209C1400088A
:10063C000C0000202C000020FEE7000080B500AF6D
:10064C00084B1B68074A43F010031360032000F0AB
:10065C002BF90F2000F008F8FFF776FF002318465F
:10066C0080BD00BF0020024080B582B000AF786032
:10067C00124B1A68124B1B7819464FF47A73B3FB62
:10068C00F1F3B2FBF3F3184600F035F90346002BF7
:10069C0001D001230EE07B680F2B0AD80022796869
:1006AC004FF0FF3000F00BF9064A7B681360002313
:1006BC0000E0012318460837BD4680BD000000202D
:1006CC00080000200400002080B400AF054B1B780C
:1006DC001A46054B1B681344034A136000BFBD4602
:1006EC0080BC7047080000202800002080B400AFB8
:1006FC00024B1B681846BD4680BC70472800002082
:10070C0080B584B000AF7860FFF7F0FFB8607B680D
:10071C00FB60FB68B3F1FF3F05D00A4B1B781A4610
:10072C00FB681344FB6000BFFFF7E0FF0246BB68A9
:10073C00D31AFA689A42F7D800BF00BF1037BD46EB
:10074C0080BD00BF0800002080B485B000AF786089
:10075C007B6803F00703FB600C4BDB68BB60BA687B
:10076C004FF6FF031340BB60FB681A02BB681343D0
:10077C0043F0BF6343F40033BB60044ABB68D360EF
:10078C0000BF1437BD4680BC704700BF00ED00E0D1
:10079C0080B400AF044BDB681B0A03F00703184658
:1007AC00BD4680BC704700BF00ED00E080B483B054
:1007BC0000AF03463960FB7197F90730002B0ADB59
:1007CC003B68DAB20C4997F907301201D2B20B44EC
:1007DC0083F800230AE03B68DAB20849FB7903F09E
:1007EC000F03043B1201D2B20B441A7600BF0C3734
:1007FC00BD4680BC704700BF00E100E000ED00E0AA
:10080C0080B489B000AFF860B9607A60FB6803F01F
:10081C000703FB61FB69C3F10703042B28BF042307
:10082C00BB61FB690433062B02D9FB69033B00E077
:10083C0000237B614FF0FF32BB6902FA03F3DA430A
:10084C00BB681A407B699A404FF0FF317B6901FA13
:10085C0003F3D9437B680B40134318462437BD463A
:10086C0080BC704780B582B000AF78607B68013B7C
:10087C00B3F1807F01D301230FE00A4A7B68013B6F
:10088C0053600F214FF0FF30FFF790FF054B002214
:10089C009A60044B07221A60002318460837BD469D
:1008AC0080BD00BF10E000E080B582B000AF786082
:1008BC007868FFF749FF00BF0837BD4680BD80B59B
:1008CC0086B000AF0346B9607A60FB7300237B618E
:1008DC00FFF75EFF78617A68B9687869FFF790FF77
:1008EC00024697F90F3011461846FFF75FFF00BF1D
:1008FC001837BD4680BD80B582B000AF786078688F
:10090C00FFF7B0FF034618460837BD4680BD000010
:10091C0080B48BB000AF7860396000237B62002319
:10092C003B6261E101227B6A02FA03F3FB613B68E3
:10093C001B68FA691340BB61BA69FB699A4240F0C3
:10094C0050813B685B68974A93425ED0954A9342CC
:10095C0075D8954A934258D0934A93426FD8934A8C
:10096C00934252D0914A934269D8914A93424CD0C7
:10097C008F4A934263D88F4A934246D08D4A934212
:10098C005DD8122B2AD8122B59D801A252F823F079
:10099C00170A0008F1090008030A0008450A0008B4
:1009AC004B0A00084B0A00084B0A00084B0A0008C7
:1009BC004B0A00084B0A00084B0A00084B0A0008B7
:1009CC004B0A00084B0A00084B0A00084B0A0008A7
:1009DC004B0A0008F90900080D0A0008764A9342F0
:1009EC0013D02CE03B68DB683B6229E03B68DB689A
:1009FC0004333B6224E03B68DB6808333B621FE056
:100A0C003B68DB680C333B621AE03B689B68002B4D
:100A1C0002D104233B6213E03B689B68012B05D198
:100A2C0008233B627B68FA691A6109E008233B6280
:100A3C007B68FA695A6103E000233B6200E000BF67
:100A4C00BB69FF2B01D87B6801E07B6804337B61B9
:100A5C00BB69FF2B02D87B6A9B0002E07B6A083BD8
:100A6C009B003B617B691A680F213B6901FA03F318
:100A7C00DB431A40396A3B6901FA03F31A437B6979
:100A8C001A603B685B6803F08053002B00F0A98070
:100A9C004A4B9B69494A43F001039361474B9B695D
:100AAC0003F00103BB60BB68454A7B6A9B080233B9
:100ABC0052F82330FB607B6A03F003039B000F2288
:100ACC0002FA03F3DB43FA681340FB607B683D4A90
:100ADC0093420DD07B683C4A934207D07B683B4ADB
:100AEC00934201D1022304E0032302E0012300E03E
:100AFC0000237A6A02F0030292009340FA681343CF
:100B0C00FB602F497B6A9B080233FA6841F823206B
:100B1C003B685B6803F48013002B06D02C4B9A685F
:100B2C002B49BB6913438B6006E0294B9A68BB6960
:100B3C00DB43274913408B603B685B6803F400136D
:100B4C00002B06D0224BDA682149BB691343CB60DA
:100B5C0006E01F4BDA68BB69DB431D491340CB60D1
:100B6C003B685B6803F40033002B06D0184B5A68C3
:100B7C001749BB6913434B6006E0154B5A68BB69B8
:100B8C00DB43134913404B603B685B6803F48033D1
:100B9C00002B1FD00E4B1A680D49BB6913430B6019
:100BAC001FE000BF000032100000311000002210C6
:100BBC000000211000001210000011100010024063
:100BCC000000014000080140000C014000100140F1
:100BDC00000401400B4B1A68BB69DB430949134005
:100BEC000B607B6A01337B623B681A687B6A22FA72
:100BFC0003F3002B7FF496AE00BF00BF2C37BD462D
:100C0C0080BC70470004014080B483B000AF7860B2
:100C1C000B467B8013467B707B78002B03D07A8845
:100C2C007B681A6103E07B881A047B681A6100BF39
:100C3C000C37BD4680BC704780B586B000AF78607D
:100C4C007B68002B01D1012372E27B681B6803F0E7
:100C5C000103002B00F08780924B5B6803F00C03C0
:100C6C00042B0CD08F4B5B6803F00C03082B12D1B8
:100C7C008C4B5B6803F48033B3F5803F0BD1894B0D
:100C8C001B6803F40033002B6CD07B685B68002B73
:100C9C0068D101234CE27B685B68B3F5803F06D1D9
:100CAC00804B1B687F4A43F4803313602EE07B68D3
:100CBC005B68002B0CD17B4B1B687A4A23F4803386
:100CCC001360784B1B68774A23F4802313601DE074
:100CDC007B685B68B3F5A02F0CD1724B1B68714A13
:100CEC0043F4802313606F4B1B686E4A43F48033CC
:100CFC0013600BE06B4B1B686A4A23F48033136060
:100D0C00684B1B68674A23F4802313607B685B681D
:100D1C00002B13D0FFF7EAFC386108E0FFF7E6FC84
:100D2C0002463B69D31A642B01D9032300E25D4BC5
:100D3C001B6803F40033002BF0D014E0FFF7D6FC53
:100D4C00386108E0FFF7D2FC02463B69D31A642BEA
:100D5C0001D90323ECE1534B1B6803F40033002B44
:100D6C00F0D100E000BF7B681B6803F00203002B8E
:100D7C0063D04C4B5B6803F00C03002B0BD0494B3E
:100D8C005B6803F00C03082B1CD1464B5B6803F427
:100D9C008033002B16D1434B1B6803F00203002B4E
:100DAC0005D07B681B69012B01D00123C0E13D4BB1
:100DBC001B6823F0F8027B685B69DB00394913433D
:100DCC000B603AE07B681B69002B20D0364B01226C
:100DDC001A60FFF78BFC386108E0FFF787FC0246CE
:100DEC003B69D31A022B01D90323A1E12D4B1B68BC
:100DFC0003F00203002BF0D02A4B1B6823F0F802FF
:100E0C007B685B69DB00274913430B6015E0264BBD
:100E1C0000221A60FFF76AFC386108E0FFF766FCF5
:100E2C0002463B69D31A022B01D9032380E11D4BE7
:100E3C001B6803F00203002BF0D17B681B6803F0E6
:100E4C000803002B3AD07B689B69002B19D0174BF9
:100E5C0001221A60FFF74AFC386108E0FFF746FCF4
:100E6C0002463B69D31A022B01D9032360E10D4BD7
:100E7C005B6A03F00203002BF0D0012000F09CFA17
:100E8C001CE00A4B00221A60FFF730FC38610FE0BF
:100E9C00FFF72CFC02463B69D31A022B08D903231B
:100EAC0046E100BF00100240000042428004424272
:100EBC00924B5B6A03F00203002BE9D17B681B6841
:100ECC0003F00403002B00F0A6800023FB758B4B72
:100EDC00DB6903F08053002B0DD1884BDB69874A0B
:100EEC0043F08053D361854BDB6903F08053BB60C7
:100EFC00BB680123FB75824B1B6803F48073002BCA
:100F0C0018D17F4B1B687E4A43F480731360FFF744
:100F1C00EDFB386108E0FFF7E9FB02463B69D31AA9
:100F2C00642B01D9032303E1754B1B6803F4807315
:100F3C00002BF0D07B68DB68012B06D16F4B1B6A52
:100F4C006E4A43F0010313622DE07B68DB68002BD3
:100F5C000CD16A4B1B6A694A23F001031362674B7D
:100F6C001B6A664A23F0040313621CE07B68DB688F
:100F7C00052B0CD1614B1B6A604A43F004031362CE
:100F8C005E4B1B6A5D4A43F0010313620BE05B4B43
:100F9C001B6A5A4A23F001031362584B1B6A574AC7
:100FAC0023F0040313627B68DB68002B15D0FFF77A
:100FBC009DFB38610AE0FFF799FB02463B69D31AA7
:100FCC0041F28832934201D90323B1E04B4B1B6AA7
:100FDC0003F00203002BEED014E0FFF787FB38611F
:100FEC000AE0FFF783FB02463B69D31A41F28832D1
:100FFC00934201D903239BE0404B1B6A03F002038D
:10100C00002BEED1FB7D012B05D13C4BDB693B4A20
:10101C0023F08053D3617B68DB69002B00F0878061
:10102C00364B5B6803F00C03082B61D07B68DB69E3
:10103C00022B46D1334B00221A60FFF757FB386165
:10104C0008E0FFF753FB02463B69D31A022B01D988
:10105C0003236DE0294B1B6803F00073002BF0D1C8
:10106C007B681B6AB3F5803F08D1244B5B6823F483
:10107C0000327B689B68214913434B601F4B5B68B4
:10108C0023F474127B68196A7B685B6A0B431B49F7
:10109C0013434B601B4B01221A60FFF727FB38618F
:1010AC0008E0FFF723FB02463B69D31A022B01D958
:1010BC0003233DE0114B1B6803F00073002BF0D0B1
:1010CC0035E0104B00221A60FFF710FB386108E086
:1010DC00FFF70CFB02463B69D31A022B01D9032301
:1010EC0026E0064B1B6803F00073002BF0D11EE0CA
:1010FC007B68DB69012B07D1012319E0001002404A
:10110C0000700040600042420B4B5B68FB60FB6868
:10111C0003F480327B681B6A9A4206D1FB6803F4A5
:10112C0070127B685B6A9A4201D0012300E00023B5
:10113C0018461837BD4680BD0010024080B584B0FB
:10114C0000AF786039607B68002B01D10123D0E0BF
:10115C006A4B1B6803F007033A689A4210D9674B35
:10116C001B6823F0070265493B6813430B60634B14
:10117C001B6803F007033A689A4201D00123B8E0D8
:10118C007B681B6803F00203002B20D07B681B6874
:10119C0003F00403002B05D0594B5B68584A43F409
:1011AC00E06353607B681B6803F00803002B05D0D9
:1011BC00534B5B68524A43F460535360504B5B682B
:1011CC0023F0F0027B689B684D4913434B607B68AE
:1011DC001B6803F00103002B40D07B685B68012B7C
:1011EC0007D1474B1B6803F40033002B15D10123A7
:1011FC007FE07B685B68022B07D1414B1B6803F0D7
:10120C000073002B09D1012373E03D4B1B6803F0E5
:10121C000203002B01D101236BE0394B5B6823F0F7
:10122C0003027B685B68364913434B60FFF75EFA39
:10123C00F8600AE0FFF75AFA0246FB68D31A41F24B
:10124C008832934201D9032353E02D4B5B6803F0A2
:10125C000C027B685B689B009A42EBD1274B1B68A6
:10126C0003F007033A689A4210D2244B1B6823F010
:10127C00070222493B6813430B60204B1B6803F0A9
:10128C0007033A689A4201D0012332E07B681B685D
:10129C0003F00403002B08D0194B5B6823F4E062C5
:1012AC007B68DB68164913434B607B681B6803F053
:1012BC000803002B09D0124B5B6823F460527B6847
:1012CC001B69DB000E4913434B6000F021F802460A
:1012DC000B4B5B681B0903F00F030A49CB5C22FA2A
:1012EC0003F3094A1360094B1B681846FFF7BCF956
:1012FC00002318461037BD4680BD00BF00200240B9
:10130C0000100240701400080000002004000020AF
:10131C0080B487B000AF0023FB600023BB600023C8
:10132C007B6100237B6000233B611E4B5B68FB6091
:10133C00FB6803F00C03042B02D0082B03D027E02E
:10134C00194B3B6127E0FB689B0C03F00F03174A1A
:10135C00D35C7B60FB6803F48033002B10D0114B03
:10136C005B685B0C03F00103114AD35CBB607B68C8
:10137C000D4A03FB02F2BB68B2FBF3F37B6104E0A2
:10138C007B680C4A02FB03F37B617B693B6102E0E7
:10139C00054B3B6100BF3B6918461C37BD4680BC02
:1013AC00704700BF0010024000127A008014000841
:1013BC009014000800093D0080B485B000AF78603F
:1013CC000A4B1B680A4AA2FB03235B0A7A6802FBDE
:1013DC0003F3FB6000BFFB685A1EFA60002BF9D1C7
:1013EC0000BF00BF1437BD4680BC70470000002012
:1013FC00D34D621003460244934200D1704703F868
:10140C00011BF9E770B500260C4D0D4C641BA410A4
:10141C00A64209D100F01AF800260A4D0A4C641BAA
:10142C00A410A64205D170BD55F8043B984701366F
:10143C00EEE755F8043B98470136F2E794140008A0
:10144C00941400089414000898140008F8B500BF10
:10145C00F8BC08BC9E467047F8B500BFF8BC08BC89
:04146C009E467047E1
:101470000000000000000000010203040607080944
:1014800002030405060708090A0B0C0D0E0F1010C5
:041490000102000055
:04149400310100081A
:041498000D0100083A
:0C149C0000127A001000000001000000A7
:04000005080005FDED
:00000001FF
