:020000040800F2
:1000000000280020D10E00086D0E0008750E0008B3
:100010007D0E0008850E00088D0E0008000000000F
:10002000000000000000000000000000950E000825
:10003000A10E000800000000AD0E0008B90E000877
:10004000190F0008190F0008190F0008190F0008F0
:10005000190F0008190F0008190F0008190F0008E0
:10006000190F0008190F0008190F0008190F0008D0
:10007000190F0008190F0008190F0008190F0008C0
:10008000190F0008190F0008190F0008190F0008B0
:10009000190F0008190F0008190F0008190F0008A0
:1000A000190F0008190F0008190F0008190F000890
:1000B000190F0008190F000800000000190F0008B0
:1000C000190F00080000000000000000190F0008D0
:1000D00000000000190F0008190F000800000000C0
:1000E000190F0008190F0008190F00080000000080
:1000F0000000000000000000000000000000000000
:0C01000000000000000000005FF808F1A3
:10010C0010B5054C237833B9044B13B10448AFF345
:10011C0000800123237010BD0C00002000000000A3
:10012C002C1D000808B5034B1BB103490348AFF362
:10013C00008008BD00000000100000202C1D0008ED
:10014C0080B582B000AF78607B68092B00F2BE816D
:10015C0001A252F823F000BF8D010008E101000854
:10016C003502000889020008DD020008310300088E
:10017C0085030008D90300082D0400088104000839
:10018C0000228021D04801F0A9F900224FF480719F
:10019C00CD4801F0A3F900224FF40071CA4801F0D8
:1001AC009DF900224FF48061C74801F097F90022B5
:1001BC004FF40061C44801F091F900224FF48051D2
:1001CC00C14801F08BF901224FF40051BE4801F0F7
:1001DC0085F9A5E101228021BB4801F07FF90022BD
:1001EC004FF48071B84801F079F900224FF4007196
:1001FC00B54801F073F901224FF48061B24801F067
:10020C006DF901224FF40061AF4801F067F901224A
:10021C004FF48051AC4801F061F901224FF40051C8
:10022C00A94801F05BF97BE100228021A64801F08E
:10023C0055F900224FF48071A34801F04FF90122C7
:10024C004FF40071A04801F049F900224FF480618D
:10025C009D4801F043F900224FF400619A4801F0E7
:10026C003DF901224FF48051974801F037F90022F3
:10027C004FF40051944801F031F951E100228021F2
:10028C00914801F02BF900224FF480718E4801F057
:10029C0025F900224FF400718B4801F01FF9002260
:1002AC004FF48061884801F019F901224FF4006184
:1002BC00854801F013F901224FF48051824801F076
:1002CC000DF900224FF400517F4801F007F927E1A6
:1002DC00012280217C4801F001F900224FF4807149
:1002EC00794801F0FBF800224FF40071764801F0D8
:1002FC00F5F801224FF48061734801F0EFF8012208
:10030C004FF40061704801F0E9F800224FF480517D
:10031C006D4801F0E3F800224FF400516A4801F0F7
:10032C00DDF8FDE000228021674801F0D7F80122BA
:10033C004FF48071644801F0D1F800224FF4007141
:10034C00614801F0CBF800224FF480615E4801F067
:10035C00C5F801224FF400615B4801F0BFF80022A0
:10036C004FF48051584801F0B9F800224FF4005175
:10037C00554801F0B3F8D3E000228021524801F037
:10038C00ADF801224FF480714F4801F0A7F800221C
:10039C004FF400714C4801F0A1F800224FF4806139
:1003AC00494801F09BF800224FF40061464801F0E7
:1003BC0095F800224FF48051434801F08FF8002249
:1003CC004FF40051404801F089F8A9E00022802147
:1003DC003D4801F083F800224FF480713A4801F057
:1003EC007DF800224FF40071374801F077F80122B4
:1003FC004FF48061344801F071F801224FF4006130
:10040C00314801F06BF801224FF480512E4801F075
:10041C0065F801224FF400512B4801F05FF87FE0A2
:10042C0000228021284801F059F800224FF48071F5
:10043C00254801F053F800224FF40071224801F0D6
:10044C004DF800224FF480611F4801F047F800225C
:10045C004FF400611C4801F041F800224FF4805128
:10046C00194801F03BF800224FF40051164801F0F6
:10047C0035F855E000228021134801F02FF80022B6
:10048C004FF48071104801F029F800224FF40071EC
:10049C000D4801F023F800224FF480610A4801F066
:1004AC001DF801224FF40061074801F017F80022F3
:1004BC004FF48051044801F011F800224FF4005120
:1004CC00014801F00BF82BE00008014001228021CB
:1004DC00154801F003F801224FF48071124800F026
:1004EC00FDFF01224FF400710F4800F0F7FF0122CD
:1004FC004FF480610C4800F0F1FF01224FF40061D1
:10050C00094800F0EBFF01224FF48051064800F03F
:10051C00E5FF01224FF40051034800F0DFFF00BF5C
:10052C0000BF0837BD4680BD0008014080B582B0D1
:10053C0000AF78607B68092B00F2B68101A252F8FB
:10054C0023F000BF79050008CB0500081D06000844
:10055C006F060008C10600081307000865070008AD
:10056C00B7070008090800085B08000800220821EA
:10057C00CB4800F0B3FF00221021C94800F0AEFFB9
:10058C0000224FF48041C64800F0A8FF00224FF42F
:10059C000041C34800F0A2FF00224FF48051C14833
:1005AC0000F09CFF00224FF40051BE4800F096FF73
:1005BC0001224FF48041BB4800F090FF9DE10122E5
:1005CC000821B74800F08AFF00221021B44800F03F
:1005DC0085FF00224FF48041B14800F07FFF0122DB
:1005EC004FF40041AE4800F079FF01224FF48051E6
:1005FC00AC4800F073FF01224FF40051A94800F001
:10060C006DFF01224FF48041A64800F067FF74E1B2
:10061C0000220821A24800F061FF00221021A0480E
:10062C0000F05CFF01224FF480419D4800F056FF22
:10063C0000224FF400419A4800F050FF00224FF482
:10064C008051984800F04AFF01224FF40051954820
:10065C0000F044FF00224FF48041924800F03EFF2E
:10066C004BE1002208218E4800F038FF00221021B7
:10067C008B4800F033FF00224FF48041884800F093
:10068C002DFF00224FF40041854800F027FF012286
:10069C004FF48051834800F021FF01224FF40051A8
:1006AC00804800F01BFF00224FF480417D4800F091
:1006BC0015FF22E101220821794800F00FFF0022EA
:1006CC001021774800F00AFF00224FF48041744853
:1006DC0000F004FF01224FF40041714800F0FEFECF
:1006EC0001224FF480516F4800F0F8FE00224FF4C5
:1006FC0000516C4800F0F2FE00224FF48041694832
:10070C0000F0ECFEF9E000220821654800F0E6FE5E
:10071C0001221021624800F0E1FE00224FF48041DA
:10072C005F4800F0DBFE00224FF400415C4800F013
:10073C00D5FE01224FF480515A4800F0CFFE002222
:10074C004FF40051574800F0C9FE00224FF480418D
:10075C00544800F0C3FED0E000220821504800F0BD
:10076C00BDFE012210214E4800F0B8FE00224FF4CD
:10077C0080414B4800F0B2FE00224FF40041484843
:10078C0000F0ACFE00224FF48051464800F0A6FE6B
:10079C0000224FF40051434800F0A0FE00224FF419
:1007AC008041404800F09AFEA7E0002208213C4816
:1007BC0000F094FE00221021394800F08FFE002238
:1007CC004FF48041364800F089FE01224FF400417D
:1007DC00334800F083FE01224FF48051314800F081
:1007EC007DFE01224FF400512E4800F077FE0122CD
:1007FC004FF480412B4800F071FE7EE0002208216E
:10080C00274800F06BFE00221021254800F066FE00
:10081C0000224FF48041224800F060FE00224FF489
:10082C0000411F4800F05AFE00224FF480511D4831
:10083C0000F054FE00224FF400511A4800F04EFE16
:10084C0000224FF48041174800F048FE55E000228A
:10085C000821134800F042FE00221021104800F03D
:10086C003DFE00224FF480410D4800F037FE00227F
:10087C004FF400410A4800F031FE01224FF4805140
:10088C00084800F02BFE00224FF40051054800F000
:10089C0025FE00224FF48041024800F01FFE2CE0A0
:1008AC0000080140000C014001220821154800F00D
:1008BC0015FE01221021134800F010FE01224FF406
:1008CC008041104800F00AFE01224FF400410D480F
:1008DC0000F004FE01224FF480510B4800F0FEFDA5
:1008EC0001224FF40051084800F0F8FD01224FF4AA
:1008FC008041054800F0F2FD00BF00BF0837BD463F
:10090C0080BD00BF00080140000C014080B582B0E2
:10091C0000AF00F0FDFA00F0E9F900F023FA09232A
:10092C007B6001233B603B68002B00F0EF803B6851
:10093C00012B40F0D3817B68022B47DD0022012183
:10094C00714800F0CBFD012202216F4800F0C6FD7A
:10095C00002204216C4800F0C1FD012208216A48E4
:10096C0000F0BCFD00221021674800F0B7FD00220A
:10097C002021654800F0B2FD00224021624800F0C1
:10098C00ADFD01228021604800F0A8FD00224FF44B
:10099C0080715D4800F0A2FD01224FF400715A48AD
:1009AC0000F09CFD00224FF48061574800F096FD4A
:1009BC0000224FF40061544800F090FD7B68023B2C
:1009CC001846FFF7BDFB7868FFF7B0FD7B68022B7C
:1009DC0048DC7B68012B45DD002201214A4800F0F0
:1009EC007DFD00220221484800F078FD01220421FF
:1009FC00454800F073FD01220821434800F06EFDCC
:100A0C0000221021404800F069FD002220213E48C0
:100A1C0000F064FD002240213B4800F05FFD002205
:100A2C008021394800F05AFD01224FF4807136487C
:100A3C0000F054FD01224FF40071334800F04EFDDC
:100A4C0000224FF48061304800F048FD00224FF442
:100A5C0000612D4800F042FD7868FFF771FB786863
:100A6C00FFF764FD7B68012B49DC0022012126483D
:100A7C0000F034FD00220221234800F02FFD01225A
:100A8C000421214800F02AFD012208211E4800F013
:100A9C0025FD002210211C4800F020FD0022202101
:100AAC00194800F01BFD00224021174800F016FDEC
:100ABC0000228021144800F011FD01224FF48071B6
:100ACC00114800F00BFD01224FF400710E4800F0AC
:100ADC0005FD00224FF480610B4800F0FFFC002262
:100AEC004FF40061084800F0F9FC7868FFF728FB28
:100AFC007868FFF71BFD0A237B6000233B607B6853
:100B0C00013B7B60EAE000BF000C01407B68022BDC
:100B1C0047DD01220121744800F0E0FC0022022193
:100B2C00714800F0DBFC002204216F4800F0D6FC79
:100B3C00002208216C4800F0D1FC012210216A48E7
:100B4C0000F0CCFC00222021674800F0C7FC0122F9
:100B5C004021654800F0C2FC00228021624800F070
:100B6C00BDFC00224FF480715F4800F0B7FC0022FE
:100B7C004FF400715C4800F0B1FC01224FF480612D
:100B8C00594800F0ABFC00224FF40061564800F0CD
:100B9C00A5FC7868FFF7D4FA7B68023B1846FFF790
:100BAC00C5FC7B68022B48DC7B68012B45DD0122F0
:100BBC0001214D4800F092FC002202214A4800F02D
:100BCC008DFC00220421484800F088FC00220821FA
:100BDC00454800F083FC00221021434800F07EFCC5
:100BEC0001222021404800F079FC012240213E489E
:100BFC0000F074FC002280213B4800F06FFC0022C6
:100C0C004FF48071384800F069FC00224FF40071F9
:100C1C00354800F063FC00224FF48061324800F04C
:100C2C005DFC01224FF400612F4800F057FC7868FE
:100C3C00FFF786FA7868FFF779FC7B68012B49DCB3
:100C4C0001220121284800F049FC002202212648FB
:100C5C0000F044FC00220421234800F03FFC002259
:100C6C000821214800F03AFC002210211E4800F017
:100C7C0035FC012220211C4800F030FC01224021CF
:100C8C00194800F02BFC00228021174800F026FCAC
:100C9C0000224FF48071144800F020FC00224FF425
:100CAC000071114800F01AFC00224FF480610E48CC
:100CBC0000F014FC01224FF400610B4800F00EFC14
:100CCC007868FFF73DFA7868FFF730FC0A237B6001
:100CDC0001233B607B68013B7B6000BF4FF47A7063
:100CEC0000F078F91FE600BF000C014080B590B011
:100CFC0000AF07F1180328220021184600F0E4FF8A
:100D0C003B1D00221A605A609A60DA601A61022355
:100D1C00BB610123BB621023FB6200237B6307F1E1
:100D2C001803184600F0F2FB0346002B01D000F02C
:100D3C006FF80F237B600023BB600023FB60002354
:100D4C003B6100237B613B1D0021184600F060FED7
:100D5C000346002B01D000F05BF800BF4037BD46C6
:100D6C0080BD000080B586B000AF07F108030022FB
:100D7C001A605A609A60DA60224B9B69214A43F0F0
:100D8C00040393611F4B9B6903F004037B607B6836
:100D9C001C4B9B691B4A43F008039361194B9B69DD
:100DAC0003F008033B603B6800224FF6F8711648CD
:100DBC0000F094FB002247F6FF71144800F08EFB04
:100DCC004FF6F873BB600123FB6000233B610223E9
:100DDC007B6107F1080319460B4800F003FA47F64C
:100DEC00FF73BB600123FB6000233B6102237B612B
:100DFC0007F108031946054800F0F4F900BF18374D
:100E0C00BD4680BD0010024000080140000C0140AE
:100E1C0080B400AF72B600BF00BFFDE780B483B0F2
:100E2C0000AF0E4B9B690D4A43F0010393610B4BD2
:100E3C009B6903F001037B607B68084BDB69074A05
:100E4C0043F08053D361054BDB6903F080533B6067
:100E5C003B6800BF0C37BD4680BC70470010024099
:100E6C0080B400AF00BFFDE780B400AF00BFFDE76A
:100E7C0080B400AF00BFFDE780B400AF00BFFDE75A
:100E8C0080B400AF00BFFDE780B400AF00BFBD462B
:100E9C0080BC704780B400AF00BFBD4680BC7047BB
:100EAC0080B400AF00BFBD4680BC704780B500AFBA
:100EBC0000F074F800BF80BD80B400AF00BFBD4629
:100ECC0080BC7047FFF7F8FF0B480C490C4A002315
:100EDC0002E0D458C4500433C4188C42F9D3094AE4
:100EEC00094C002301E013600432A242FBD300F052
:100EFC00F3FEFFF70BFD7047000000200C000020F4
:100F0C00701D00080C0000202C000020FEE70000E3
:100F1C0080B500AF084B1B68074A43F01003136001
:100F2C00032000F02BF90F2000F008F8FFF776FFF4
:100F3C000023184680BD00BF0020024080B582B05F
:100F4C0000AF7860124B1A68124B1B7819464FF49D
:100F5C007A73B3FBF1F3B2FBF3F3184600F035F9F7
:100F6C000346002B01D001230EE07B680F2B0AD81F
:100F7C00002279684FF0FF3000F00BF9064A7B68CD
:100F8C001360002300E0012318460837BD4680BDDE
:100F9C0000000020080000200400002080B400AFF6
:100FAC00054B1B781A46054B1B681344034A136008
:100FBC0000BFBD4680BC7047080000202800002000
:100FCC0080B400AF024B1B681846BD4680BC70470E
:100FDC002800002080B584B000AF7860FFF7F0FFE8
:100FEC00B8607B68FB60FB68B3F1FF3F05D00A4B30
:100FFC001B781A46FB681344FB6000BFFFF7E0FF49
:10100C000246BB68D31AFA689A42F7D800BF00BFF1
:10101C001037BD4680BD00BF0800002080B485B0ED
:10102C0000AF78607B6803F00703FB600C4BDB6858
:10103C00BB60BA684FF6FF031340BB60FB681A0233
:10104C00BB68134343F0BF6343F40033BB60044AF3
:10105C00BB68D36000BF1437BD4680BC704700BF6F
:10106C0000ED00E080B400AF044BDB681B0A03F01A
:10107C0007031846BD4680BC704700BF00ED00E07A
:10108C0080B483B000AF03463960FB7197F9073029
:10109C00002B0ADB3B68DAB20C4997F907301201D6
:1010AC00D2B20B4483F800230AE03B68DAB2084959
:1010BC00FB7903F00F03043B1201D2B20B441A76F6
:1010CC0000BF0C37BD4680BC704700BF00E100E09C
:1010DC0000ED00E080B489B000AFF860B9607A60D0
:1010EC00FB6803F00703FB61FB69C3F10703042BE7
:1010FC0028BF0423BB61FB690433062B02D9FB69AF
:10110C00033B00E000237B614FF0FF32BB6902FA26
:10111C0003F3DA43BB681A407B699A404FF0FF3106
:10112C007B6901FA03F3D9437B680B4013431846E0
:10113C002437BD4680BC704780B582B000AF786064
:10114C007B68013BB3F1807F01D301230FE00A4A96
:10115C007B68013B53600F214FF0FF30FFF790FF8E
:10116C00054B00229A60044B07221A600023184694
:10117C000837BD4680BD00BF10E000E080B582B0EE
:10118C0000AF78607868FFF749FF00BF0837BD46AD
:10119C0080BD80B586B000AF0346B9607A60FB7342
:1011AC0000237B61FFF75EFF78617A68B968786924
:1011BC00FFF790FF024697F90F3011461846FFF7DC
:1011CC005FFF00BF1837BD4680BD80B582B000AF51
:1011DC0078607868FFF7B0FF034618460837BD46BD
:1011EC0080BD000080B48BB000AF78603960002304
:1011FC007B6200233B6261E101227B6A02FA03F30A
:10120C00FB613B681B68FA691340BB61BA69FB69F7
:10121C009A4240F050813B685B68974A93425ED09B
:10122C00954A934275D8954A934258D0934A934223
:10123C006FD8934A934252D0914A934269D8914ABB
:10124C0093424CD08F4A934263D88F4A934246D0F4
:10125C008D4A93425DD8122B2AD8122B59D801A251
:10126C0052F823F0EB120008C5120008D712000840
:10127C00191300081F1300081F1300081F13000880
:10128C001F1300081F1300081F1300081F1300086A
:10129C001F1300081F1300081F1300081F1300085A
:1012AC001F1300081F130008CD120008E1120008DC
:1012BC00764A934213D02CE03B68DB683B6229E012
:1012CC003B68DB6804333B6224E03B68DB68083333
:1012DC003B621FE03B68DB680C333B621AE03B6807
:1012EC009B68002B02D104233B6213E03B689B6894
:1012FC00012B05D108233B627B68FA691A6109E06E
:10130C0008233B627B68FA695A6103E000233B6265
:10131C0000E000BFBB69FF2B01D87B6801E07B6854
:10132C0004337B61BB69FF2B02D87B6A9B0002E014
:10133C007B6A083B9B003B617B691A680F213B6908
:10134C0001FA03F3DB431A40396A3B6901FA03F3F0
:10135C001A437B691A603B685B6803F08053002B6F
:10136C0000F0A9804A4B9B69494A43F00103936101
:10137C00474B9B6903F00103BB60BB68454A7B6A22
:10138C009B08023352F82330FB607B6A03F00303A3
:10139C009B000F2202FA03F3DB43FA681340FB6055
:1013AC007B683D4A93420DD07B683C4A934207D000
:1013BC007B683B4A934201D1022304E0032302E001
:1013CC00012300E000237A6A02F0030292009340AA
:1013DC00FA681343FB602F497B6A9B080233FA6857
:1013EC0041F823203B685B6803F48013002B06D084
:1013FC002C4B9A682B49BB6913438B6006E0294B35
:10140C009A68BB69DB43274913408B603B685B6878
:10141C0003F40013002B06D0224BDA682149BB6978
:10142C001343CB6006E01F4BDA68BB69DB431D49F5
:10143C001340CB603B685B6803F40033002B06D091
:10144C00184B5A681749BB6913434B6006E0154BA0
:10145C005A68BB69DB43134913404B603B685B68BC
:10146C0003F48033002B1FD00E4B1A680D49BB6957
:10147C0013430B601FE000BF00003210000031105E
:10148C0000002210000021100000121000001110AA
:10149C00001002400000014000080140000C014017
:1014AC0000100140000401400B4B1A68BB69DB4380
:1014BC00094913400B607B6A01337B623B681A68F5
:1014CC007B6A22FA03F3002B7FF496AE00BF00BFB9
:1014DC002C37BD4680BC70470004014080B483B0FB
:1014EC0000AF78600B467B8013467B707B78002BBB
:1014FC0003D07A887B681A6103E07B881A047B68C6
:10150C001A6100BF0C37BD4680BC704780B586B0F1
:10151C0000AF78607B68002B01D1012372E27B68FD
:10152C001B6803F00103002B00F08780924B5B6873
:10153C0003F00C03042B0CD08F4B5B6803F00C03F3
:10154C00082B12D18C4B5B6803F48033B3F5803FCE
:10155C000BD1894B1B6803F40033002B6CD07B68D8
:10156C005B68002B68D101234CE27B685B68B3F5A8
:10157C00803F06D1804B1B687F4A43F48033136055
:10158C002EE07B685B68002B0CD17B4B1B687A4A86
:10159C0023F480331360784B1B68774A23F4802341
:1015AC0013601DE07B685B68B3F5A02F0CD1724B08
:1015BC001B68714A43F4802313606F4B1B686E4A9F
:1015CC0043F4803313600BE06B4B1B686A4A23F4C3
:1015DC0080331360684B1B68674A23F480231360C5
:1015EC007B685B68002B13D0FFF7EAFC386108E0DE
:1015FC00FFF7E6FC02463B69D31A642B01D903239F
:10160C0000E25D4B1B6803F40033002BF0D014E0B8
:10161C00FFF7D6FC386108E0FFF7D2FC02463B69C5
:10162C00D31A642B01D90323ECE1534B1B6803F44D
:10163C000033002BF0D100E000BF7B681B6803F087
:10164C000203002B63D04C4B5B6803F00C03002BA4
:10165C000BD0494B5B6803F00C03082B1CD1464B99
:10166C005B6803F48033002B16D1434B1B6803F0EB
:10167C000203002B05D07B681B69012B01D00123D1
:10168C00C0E13D4B1B6823F0F8027B685B69DB0013
:10169C00394913430B603AE07B681B69002B20D05F
:1016AC00364B01221A60FFF78BFC386108E0FFF71C
:1016BC0087FC02463B69D31A022B01D90323A1E113
:1016CC002D4B1B6803F00203002BF0D02A4B1B6838
:1016DC0023F0F8027B685B69DB00274913430B603E
:1016EC0015E0264B00221A60FFF76AFC386108E00F
:1016FC00FFF766FC02463B69D31A022B01D9032380
:10170C0080E11D4B1B6803F00203002BF0D17B68BA
:10171C001B6803F00803002B3AD07B689B69002BF5
:10172C0019D0174B01221A60FFF74AFC386108E008
:10173C00FFF746FC02463B69D31A022B01D903235F
:10174C0060E10D4B5B6A03F00203002BF0D001202B
:10175C0000F09CFA1CE00A4B00221A60FFF730FCE8
:10176C0038610FE0FFF72CFC02463B69D31A022BC1
:10177C0008D9032346E100BF00100240000042429A
:10178C0080044242924B5B6A03F00203002BE9D1C6
:10179C007B681B6803F00403002B00F0A680002379
:1017AC00FB758B4BDB6903F08053002B0DD1884B01
:1017BC00DB69874A43F08053D361854BDB6903F0C7
:1017CC008053BB60BB680123FB75824B1B6803F421
:1017DC008073002B18D17F4B1B687E4A43F48073B7
:1017EC001360FFF7EDFB386108E0FFF7E9FB0246F9
:1017FC003B69D31A642B01D9032303E1754B1B6896
:10180C0003F48073002BF0D07B68DB68012B06D1CE
:10181C006F4B1B6A6E4A43F0010313622DE07B6829
:10182C00DB68002B0CD16A4B1B6A694A23F001035D
:10183C001362674B1B6A664A23F0040313621CE0B5
:10184C007B68DB68052B0CD1614B1B6A604A43F04B
:10185C00040313625E4B1B6A5D4A43F0010313627F
:10186C000BE05B4B1B6A5A4A23F001031362584B83
:10187C001B6A574A23F0040313627B68DB68002B56
:10188C0015D0FFF79DFB38610AE0FFF799FB024684
:10189C003B69D31A41F28832934201D90323B1E058
:1018AC004B4B1B6A03F00203002BEED014E0FFF746
:1018BC0087FB38610AE0FFF783FB02463B69D31ACA
:1018CC0041F28832934201D903239BE0404B1B6ABF
:1018DC0003F00203002BEED1FB7D012B05D13C4B19
:1018EC00DB693B4A23F08053D3617B68DB69002BB7
:1018FC0000F08780364B5B6803F00C03082B61D03B
:10190C007B68DB69022B46D1334B00221A60FFF750
:10191C0057FB386108E0FFF753FB02463B69D31ACB
:10192C00022B01D903236DE0294B1B6803F00073D4
:10193C00002BF0D17B681B6AB3F5803F08D1244B98
:10194C005B6823F400327B689B68214913434B602E
:10195C001F4B5B6823F474127B68196A7B685B6AA3
:10196C000B431B4913434B601B4B01221A60FFF7BF
:10197C0027FB386108E0FFF723FB02463B69D31ACB
:10198C00022B01D903233DE0114B1B6803F00073BC
:10199C00002BF0D035E0104B00221A60FFF710FB43
:1019AC00386108E0FFF70CFB02463B69D31A022BA7
:1019BC0001D9032326E0064B1B6803F00073002BB0
:1019CC00F0D11EE07B68DB69012B07D1012319E004
:1019DC000010024000700040600042420B4B5B68FC
:1019EC00FB60FB6803F480327B681B6A9A4206D169
:1019FC00FB6803F470127B685B6A9A4201D0012386
:101A0C0000E0002318461837BD4680BD0010024088
:101A1C0080B584B000AF786039607B68002B01D151
:101A2C000123D0E06A4B1B6803F007033A689A4223
:101A3C0010D9674B1B6823F0070265493B681343B9
:101A4C000B60634B1B6803F007033A689A4201D0A2
:101A5C000123B8E07B681B6803F00203002B20D045
:101A6C007B681B6803F00403002B05D0594B5B68A3
:101A7C00584A43F4E06353607B681B6803F0080327
:101A8C00002B05D0534B5B68524A43F460535360B0
:101A9C00504B5B6823F0F0027B689B684D49134305
:101AAC004B607B681B6803F00103002B40D07B6804
:101ABC005B68012B07D1474B1B6803F40033002BE9
:101ACC0015D101237FE07B685B68022B07D1414B6A
:101ADC001B6803F00073002B09D1012373E03D4B0D
:101AEC001B6803F00203002B01D101236BE0394B7F
:101AFC005B6823F003027B685B68364913434B60D9
:101B0C00FFF75EFAF8600AE0FFF75AFA0246FB6844
:101B1C00D31A41F28832934201D9032353E02D4B5F
:101B2C005B6803F00C027B685B689B009A42EBD10C
:101B3C00274B1B6803F007033A689A4210D2244BD8
:101B4C001B6823F0070222493B6813430B60204BB0
:101B5C001B6803F007033A689A4201D0012332E074
:101B6C007B681B6803F00403002B08D0194B5B68DF
:101B7C0023F4E0627B68DB68164913434B607B6897
:101B8C001B6803F00803002B09D0124B5B6823F48D
:101B9C0060527B681B69DB000E4913434B6000F0FD
:101BAC0021F802460B4B5B681B0903F00F030A4933
:101BBC00CB5C22FA03F3094A1360094B1B681846E5
:101BCC00FFF7BCF9002318461037BD4680BD00BF97
:101BDC000020024000100240441D000800000020BC
:101BEC000400002080B487B000AF0023FB6000230A
:101BFC00BB6000237B6100237B6000233B611E4B99
:101C0C005B68FB60FB6803F00C03042B02D0082B11
:101C1C0003D027E0194B3B6127E0FB689B0C03F0DA
:101C2C000F03174AD35C7B60FB6803F48033002BF3
:101C3C0010D0114B5B685B0C03F00103114AD35CB1
:101C4C00BB607B680D4A03FB02F2BB68B2FBF3F38B
:101C5C007B6104E07B680C4A02FB03F37B617B69CC
:101C6C003B6102E0054B3B6100BF3B6918461C37EA
:101C7C00BD4680BC704700BF0010024000127A00C5
:101C8C00541D0008641D000800093D0080B485B097
:101C9C0000AF78600A4B1B680A4AA2FB03235B0A5D
:101CAC007A6802FB03F3FB6000BFFB685A1EFA6004
:101CBC00002BF9D100BF00BF1437BD4680BC704764
:101CCC0000000020D34D621003460244934200D121
:101CDC00704703F8011BF9E770B500260C4D0D4C4D
:101CEC00641BA410A64209D100F01AF800260A4D74
:101CFC000A4C641BA410A64205D170BD55F8043BD8
:101D0C0098470136EEE755F8043B98470136F2E761
:101D1C00681D0008681D0008681D00086C1D00087F
:101D2C00F8B500BFF8BC08BC9E467047F8B500BFBC
:081D3C00F8BC08BC9E4670478C
:101D44000000000000000000010203040607080967
:101D540002030405060708090A0B0C0D0E0F1010E8
:041D64000102000078
:041D6800310100083D
:041D6C000D0100085D
:0C1D700000127A001000000001000000CA
:0400000508000ED110
:00000001FF
