:020000040800F2
:1000000000280020E90E0008850E00088D0E00086B
:10001000950E00089D0E0008A50E000800000000C7
:10002000000000000000000000000000AD0E00080D
:10003000B90E000800000000C50E0008D10E00082F
:10004000310F0008310F0008310F0008310F000890
:10005000310F0008310F0008310F0008310F000880
:10006000310F0008310F0008310F0008310F000870
:10007000310F0008310F0008310F0008310F000860
:10008000310F0008310F0008310F0008310F000850
:10009000310F0008310F0008310F0008310F000840
:1000A000310F0008310F0008310F0008310F000830
:1000B000310F0008310F000800000000310F000868
:1000C000310F00080000000000000000310F0008A0
:1000D00000000000310F0008310F00080000000090
:1000E000310F0008310F0008310F00080000000038
:1000F0000000000000000000000000000000000000
:0C01000000000000000000005FF808F1A3
:10010C0010B5054C237833B9044B13B10448AFF345
:10011C0000800123237010BD0C00002000000000A3
:10012C00441D000808B5034B1BB103490348AFF34A
:10013C00008008BD0000000010000020441D0008D5
:10014C0080B582B000AF78607B68092B00F2BE816D
:10015C0001A252F823F000BF8D010008E101000854
:10016C003502000889020008DD020008310300088E
:10017C0085030008D90300082D0400088104000839
:10018C0000228021D04801F0B5F900224FF4807193
:10019C00CD4801F0AFF900224FF40071CA4801F0CC
:1001AC00A9F900224FF48061C74801F0A3F900229D
:1001BC004FF40061C44801F09DF900224FF48051C6
:1001CC00C14801F097F901224FF40051BE4801F0EB
:1001DC0091F9A5E101228021BB4801F08BF90022A5
:1001EC004FF48071B84801F085F900224FF400718A
:1001FC00B54801F07FF901224FF48061B24801F05B
:10020C0079F901224FF40061AF4801F073F9012232
:10021C004FF48051AC4801F06DF901224FF40051BC
:10022C00A94801F067F97BE100228021A64801F082
:10023C0061F900224FF48071A34801F05BF90122AF
:10024C004FF40071A04801F055F900224FF4806181
:10025C009D4801F04FF900224FF400619A4801F0DB
:10026C0049F901224FF48051974801F043F90022DB
:10027C004FF40051944801F03DF951E100228021E6
:10028C00914801F037F900224FF480718E4801F04B
:10029C0031F900224FF400718B4801F02BF9002248
:1002AC004FF48061884801F025F901224FF4006178
:1002BC00854801F01FF901224FF48051824801F06A
:1002CC0019F900224FF400517F4801F013F927E18E
:1002DC00012280217C4801F00DF900224FF480713D
:1002EC00794801F007F900224FF40071764801F0CB
:1002FC0001F901224FF48061734801F0FBF80122EF
:10030C004FF40061704801F0F5F800224FF4805171
:10031C006D4801F0EFF800224FF400516A4801F0EB
:10032C00E9F8FDE000228021674801F0E3F80122A2
:10033C004FF48071644801F0DDF800224FF4007135
:10034C00614801F0D7F800224FF480615E4801F05B
:10035C00D1F801224FF400615B4801F0CBF8002288
:10036C004FF48051584801F0C5F800224FF4005169
:10037C00554801F0BFF8D3E000228021524801F02B
:10038C00B9F801224FF480714F4801F0B3F8002204
:10039C004FF400714C4801F0ADF800224FF480612D
:1003AC00494801F0A7F800224FF40061464801F0DB
:1003BC00A1F800224FF48051434801F09BF8002231
:1003CC004FF40051404801F095F8A9E0002280213B
:1003DC003D4801F08FF800224FF480713A4801F04B
:1003EC0089F800224FF40071374801F083F801229C
:1003FC004FF48061344801F07DF801224FF4006124
:10040C00314801F077F801224FF480512E4801F069
:10041C0071F801224FF400512B4801F06BF87FE08A
:10042C0000228021284801F065F800224FF48071E9
:10043C00254801F05FF800224FF40071224801F0CA
:10044C0059F800224FF480611F4801F053F8002244
:10045C004FF400611C4801F04DF800224FF480511C
:10046C00194801F047F800224FF40051164801F0EA
:10047C0041F855E000228021134801F03BF800229E
:10048C004FF48071104801F035F800224FF40071E0
:10049C000D4801F02FF800224FF480610A4801F05A
:1004AC0029F801224FF40061074801F023F80022DB
:1004BC004FF48051044801F01DF800224FF4005114
:1004CC00014801F017F82BE00008014001228021BF
:1004DC00154801F00FF801224FF48071124801F019
:1004EC0009F801224FF400710F4801F003F80122C2
:1004FC004FF480610C4800F0FDFF01224FF40061C5
:10050C00094800F0F7FF01224FF48051064800F033
:10051C00F1FF01224FF40051034800F0EBFF00BF44
:10052C0000BF0837BD4680BD0008014080B582B0D1
:10053C0000AF78607B68092B00F2B68101A252F8FB
:10054C0023F000BF79050008CB0500081D06000844
:10055C006F060008C10600081307000865070008AD
:10056C00B7070008090800085B08000800220821EA
:10057C00CB4800F0BFFF00221021C94800F0BAFFA1
:10058C0000224FF48041C64800F0B4FF00224FF423
:10059C000041C34800F0AEFF00224FF48051C14827
:1005AC0000F0A8FF00224FF40051BE4800F0A2FF5B
:1005BC0001224FF48041BB4800F09CFF9DE10122D9
:1005CC000821B74800F096FF00221021B44800F033
:1005DC0091FF00224FF48041B14800F08BFF0122C3
:1005EC004FF40041AE4800F085FF01224FF48051DA
:1005FC00AC4800F07FFF01224FF40051A94800F0F5
:10060C0079FF01224FF48041A64800F073FF74E19A
:10061C0000220821A24800F06DFF00221021A04802
:10062C0000F068FF01224FF480419D4800F062FF0A
:10063C0000224FF400419A4800F05CFF00224FF476
:10064C008051984800F056FF01224FF40051954814
:10065C0000F050FF00224FF48041924800F04AFF16
:10066C004BE1002208218E4800F044FF00221021AB
:10067C008B4800F03FFF00224FF48041884800F087
:10068C0039FF00224FF40041854800F033FF01226E
:10069C004FF48051834800F02DFF01224FF400519C
:1006AC00804800F027FF00224FF480417D4800F085
:1006BC0021FF22E101220821794800F01BFF0022D2
:1006CC001021774800F016FF00224FF48041744847
:1006DC0000F010FF01224FF40041714800F00AFFB6
:1006EC0001224FF480516F4800F004FF00224FF4B8
:1006FC0000516C4800F0FEFE00224FF48041694826
:10070C0000F0F8FEF9E000220821654800F0F2FE46
:10071C0001221021624800F0EDFE00224FF48041CE
:10072C005F4800F0E7FE00224FF400415C4800F007
:10073C00E1FE01224FF480515A4800F0DBFE00220A
:10074C004FF40051574800F0D5FE00224FF4804181
:10075C00544800F0CFFED0E000220821504800F0B1
:10076C00C9FE012210214E4800F0C4FE00224FF4B5
:10077C0080414B4800F0BEFE00224FF40041484837
:10078C0000F0B8FE00224FF48051464800F0B2FE53
:10079C0000224FF40051434800F0ACFE00224FF40D
:1007AC008041404800F0A6FEA7E0002208213C480A
:1007BC0000F0A0FE00221021394800F09BFE002220
:1007CC004FF48041364800F095FE01224FF4004171
:1007DC00334800F08FFE01224FF48051314800F075
:1007EC0089FE01224FF400512E4800F083FE0122B5
:1007FC004FF480412B4800F07DFE7EE00022082162
:10080C00274800F077FE00221021254800F072FEE8
:10081C0000224FF48041224800F06CFE00224FF47D
:10082C0000411F4800F066FE00224FF480511D4825
:10083C0000F060FE00224FF400511A4800F05AFEFE
:10084C0000224FF48041174800F054FE55E000227E
:10085C000821134800F04EFE00221021104800F031
:10086C0049FE00224FF480410D4800F043FE002267
:10087C004FF400410A4800F03DFE01224FF4805134
:10088C00084800F037FE00224FF40051054800F0F4
:10089C0031FE00224FF48041024800F02BFE2CE088
:1008AC0000080140000C014001220821154800F00D
:1008BC0021FE01221021134800F01CFE01224FF4EE
:1008CC008041104800F016FE01224FF400410D4803
:1008DC0000F010FE01224FF480510B4800F00AFE8C
:1008EC0001224FF40051084800F004FE01224FF49D
:1008FC008041054800F0FEFD00BF00BF0837BD4633
:10090C0080BD00BF00080140000C014080B582B0E2
:10091C0000AF00F009FB00F0F5F900F02FFA092305
:10092C007B6001233B603B68002B00F0F1803B684F
:10093C00012B40F0E0817B68032B4ADD0022012172
:10094C00C34800F0D7FD01220221C14800F0D2FDBE
:10095C0000220421BE4800F0CDFD01220821BC4834
:10096C0000F0C8FD00221021B94800F0C3FD0022A0
:10097C002021B74800F0BEFD00224021B44800F011
:10098C00B9FD01228021B24800F0B4FD00224FF4E1
:10099C008071AF4800F0AEFD01224FF40071AC48FD
:1009AC0000F0A8FD00224FF48061A94800F0A2FDE0
:1009BC0000224FF40061A64800F09CFD7B68033BCD
:1009CC001846FFF7BDFB7868FFF7B0FD7B68013B6D
:1009DC007B607B68032B4CDC7B68012B49DD0022A0
:1009EC0001219B4800F086FD00220221984800F06E
:1009FC0081FD01220421964800F07CFD0122082192
:100A0C00934800F077FD00221021914800F072FD10
:100A1C00002220218E4800F06DFD002240218C48E0
:100A2C0000F068FD00228021894800F063FD01225E
:100A3C004FF48071864800F05DFD01224FF4007187
:100A4C00834800F057FD00224FF48061804800F08D
:100A5C0051FD00224FF400617D4800F04BFD786899
:100A6C00FFF76EFB7868FFF761FD7B68013B7B60ED
:100A7C003EE17B68012B00F33B810022012174488D
:100A8C0000F038FD00220221714800F033FD0122F4
:100A9C0004216F4800F02EFD012208216C4800F063
:100AAC0029FD002210216A4800F024FD002220219B
:100ABC00674800F01FFD00224021654800F01AFD38
:100ACC0000228021624800F015FD01224FF4807154
:100ADC005F4800F00FFD01224FF400715C4800F0FC
:100AEC0009FD00224FF48061594800F003FD0022FB
:100AFC004FF40061564800F0FDFC7868FFF720FBCE
:100B0C007868FFF713FD09237B6000233B60EFE05F
:100B1C007B68032B4BDD012201214D4800F0EAFCE0
:100B2C00002202214A4800F0E5FC0022042148483A
:100B3C0000F0E0FC00220821454800F0DBFC01221B
:100B4C001021434800F0D6FC00222021404800F040
:100B5C00D1FC012240213E4800F0CCFC0022802137
:100B6C003B4800F0C7FC00224FF48071384800F07D
:100B7C00C1FC00224FF40071354800F0BBFC01228F
:100B8C004FF48061324800F0B5FC00224FF4006154
:100B9C002F4800F0AFFC7868FFF7D2FA7B68033B74
:100BAC001846FFF7C3FC7B68013B7B60A2E07B68C7
:100BBC00032B4FDC7B68012B4CDD012201212448E7
:100BCC0000F098FC00220221214800F093FC002246
:100BDC0004211F4800F08EFC002208211C4800F064
:100BEC0089FC002210211A4800F084FC01222021EB
:100BFC00174800F07FFC01224021154800F07AFCD8
:100C0C0000228021124800F075FC00224FF4807104
:100C1C000F4800F06FFC00224FF400710C4800F0FC
:100C2C0069FC00224FF48061094800F063FC01224A
:100C3C004FF40061064800F05DFC7868FFF780FA1D
:100C4C007868FFF773FC7B68013B7B6052E000BF68
:100C5C00000C01407B68012B4CDC0122012128484F
:100C6C0000F048FC00220221254800F043FC002241
:100C7C000421234800F03EFC00220821204800F00B
:100C8C0039FC002210211E4800F034FC01222021E6
:100C9C001B4800F02FFC01224021194800F02AFCCF
:100CAC0000228021164800F025FC00224FF48071B0
:100CBC00134800F01FFC00224FF40071104800F0A4
:100CCC0019FC00224FF480610D4800F013FC012246
:100CDC004FF400610A4800F00DFC7868FFF730FA19
:100CEC007868FFF723FC09237B6001233B6001E05C
:100CFC0000BF00E000BF4FF47A7000F077F912E605
:100D0C00000C014080B590B000AF07F11803282209
:100D1C000021184600F0E4FF3B1D00221A605A60C7
:100D2C009A60DA601A610223BB610123BB62102353
:100D3C00FB6200237B6307F11803184600F0F2FBFB
:100D4C000346002B01D000F06FF80F237B600023CB
:100D5C00BB600023FB6000233B6100237B613B1DD8
:100D6C000021184600F060FE0346002B01D000F075
:100D7C005BF800BF4037BD4680BD000080B586B033
:100D8C0000AF07F1080300221A605A609A60DA601B
:100D9C00224B9B69214A43F0040393611F4B9B69CF
:100DAC0003F004037B607B681C4B9B691B4A43F07C
:100DBC0008039361194B9B6903F008033B603B6884
:100DCC0000224FF6F871164800F094FB002247F60B
:100DDC00FF71144800F08EFB4FF6F873BB600123D3
:100DEC00FB6000233B6102237B6107F1080319467A
:100DFC000B4800F003FA47F6FF73BB600123FB605E
:100E0C0000233B6102237B6107F108031946054867
:100E1C0000F0F4F900BF1837BD4680BD0010024049
:100E2C0000080140000C014080B400AF72B600BF56
:100E3C0000BFFDE780B483B000AF0E4B9B690D4A39
:100E4C0043F0010393610B4B9B6903F001037B603F
:100E5C007B68084BDB69074A43F08053D361054B31
:100E6C00DB6903F080533B603B6800BF0C37BD4629
:100E7C0080BC70470010024080B400AF00BFFDE79B
:100E8C0080B400AF00BFFDE780B400AF00BFFDE74A
:100E9C0080B400AF00BFFDE780B400AF00BFFDE73A
:100EAC0080B400AF00BFBD4680BC704780B400AFBB
:100EBC0000BFBD4680BC704780B400AF00BFBD46CC
:100ECC0080BC704780B500AF00F074F800BF80BDE7
:100EDC0080B400AF00BFBD4680BC7047FFF7F8FF81
:100EEC000B480C490C4A002302E0D458C45004337C
:100EFC00C4188C42F9D3094A094C002301E0136051
:100F0C000432A242FBD300F0F3FEFFF7FFFC704764
:100F1C00000000200C000020881D00080C000020A0
:100F2C002C000020FEE7000080B500AF084B1B68CA
:100F3C00074A43F010031360032000F02BF90F2035
:100F4C0000F008F8FFF776FF0023184680BD00BFBD
:100F5C000020024080B582B000AF7860124B1A6856
:100F6C00124B1B7819464FF47A73B3FBF1F3B2FBB7
:100F7C00F3F3184600F035F90346002B01D001239A
:100F8C000EE07B680F2B0AD8002279684FF0FF30F7
:100F9C0000F00BF9064A7B681360002300E0012384
:100FAC0018460837BD4680BD000000200800002010
:100FBC000400002080B400AF054B1B781A46054B8B
:100FCC001B681344034A136000BFBD4680BC7047C6
:100FDC00080000202800002080B400AF024B1B68E2
:100FEC001846BD4680BC70472800002080B584B0F0
:100FFC0000AF7860FFF7F0FFB8607B68FB60FB68C0
:10100C00B3F1FF3F05D00A4B1B781A46FB6813441B
:10101C00FB6000BFFFF7E0FF0246BB68D31AFA681B
:10102C009A42F7D800BF00BF1037BD4680BD00BF45
:10103C000800002080B485B000AF78607B6803F0B6
:10104C000703FB600C4BDB68BB60BA684FF6FF0311
:10105C001340BB60FB681A02BB68134343F0BF63C9
:10106C0043F40033BB60044ABB68D36000BF143741
:10107C00BD4680BC704700BF00ED00E080B400AFFF
:10108C00044BDB681B0A03F007031846BD4680BC03
:10109C00704700BF00ED00E080B483B000AF0346A2
:1010AC003960FB7197F90730002B0ADB3B68DAB229
:1010BC000C4997F907301201D2B20B4483F8002384
:1010CC000AE03B68DAB20849FB7903F00F03043BF2
:1010DC001201D2B20B441A7600BF0C37BD4680BC4D
:1010EC00704700BF00E100E000ED00E080B489B083
:1010FC0000AFF860B9607A60FB6803F00703FB612E
:10110C00FB69C3F10703042B28BF0423BB61FB69F4
:10111C000433062B02D9FB69033B00E000237B61FF
:10112C004FF0FF32BB6902FA03F3DA43BB681A4093
:10113C007B699A404FF0FF317B6901FA03F3D94385
:10114C007B680B40134318462437BD4680BC704760
:10115C0080B582B000AF78607B68013BB3F1807FD3
:10116C0001D301230FE00A4A7B68013B53600F2136
:10117C004FF0FF30FFF790FF054B00229A60044BB5
:10118C0007221A60002318460837BD4680BD00BFF1
:10119C0010E000E080B582B000AF78607868FFF7AF
:1011AC0049FF00BF0837BD4680BD80B586B000AF93
:1011BC000346B9607A60FB7300237B61FFF75EFF27
:1011CC0078617A68B9687869FFF790FF024697F9F9
:1011DC000F3011461846FFF75FFF00BF1837BD46AA
:1011EC0080BD80B582B000AF78607868FFF7B0FF43
:1011FC00034618460837BD4680BD000080B48BB04E
:10120C0000AF7860396000237B6200233B6261E1B0
:10121C0001227B6A02FA03F3FB613B681B68FA69E3
:10122C001340BB61BA69FB699A4240F050813B683C
:10123C005B68974A93425ED0954A934275D8954A1B
:10124C00934258D0934A93426FD8934A934252D0C8
:10125C00914A934269D8914A93424CD08F4A934217
:10126C0063D88F4A934246D08D4A93425DD8122B55
:10127C002AD8122B59D801A252F823F003130008D4
:10128C00DD120008EF1200083113000837130008B4
:10129C0037130008371300083713000837130008FA
:1012AC0037130008371300083713000837130008EA
:1012BC0037130008371300083713000837130008DA
:1012CC00E5120008F9120008764A934213D02CE07C
:1012DC003B68DB683B6229E03B68DB6804333B62BC
:1012EC0024E03B68DB6808333B621FE03B68DB684B
:1012FC000C333B621AE03B689B68002B02D1042341
:10130C003B6213E03B689B68012B05D108233B62D1
:10131C007B68FA691A6109E008233B627B68FA6909
:10132C005A6103E000233B6200E000BFBB69FF2B66
:10133C0001D87B6801E07B6804337B61BB69FF2BC0
:10134C0002D87B6A9B0002E07B6A083B9B003B61F6
:10135C007B691A680F213B6901FA03F3DB431A40DE
:10136C00396A3B6901FA03F31A437B691A603B68DB
:10137C005B6803F08053002B00F0A9804A4B9B69FB
:10138C00494A43F001039361474B9B6903F0010306
:10139C00BB60BB68454A7B6A9B08023352F823301A
:1013AC00FB607B6A03F003039B000F2202FA03F33A
:1013BC00DB43FA681340FB607B683D4A93420DD0D7
:1013CC007B683C4A934207D07B683B4A934201D1ED
:1013DC00022304E0032302E0012300E000237A6AE5
:1013EC0002F0030292009340FA681343FB602F490A
:1013FC007B6A9B080233FA6841F823203B685B68E0
:10140C0003F48013002B06D02C4B9A682B49BB6934
:10141C0013438B6006E0294B9A68BB69DB43274971
:10142C0013408B603B685B6803F40013002B06D001
:10143C00224BDA682149BB691343CB6006E01F4B92
:10144C00DA68BB69DB431D491340CB603B685B68C2
:10145C0003F40033002B06D0184B5A681749BB69AC
:10146C0013434B6006E0154B5A68BB69DB431349C9
:10147C0013404B603B685B6803F48033002B1FD038
:10148C000E4B1A680D49BB6913430B601FE000BF7C
:10149C00000032100000311000002210000021105A
:1014AC00000012100000111000100240000001405A
:1014BC0000080140000C01400010014000040140F4
:1014CC000B4B1A68BB69DB43094913400B607B6A01
:1014DC0001337B623B681A687B6A22FA03F3002BA8
:1014EC007FF496AE00BF00BF2C37BD4680BC704762
:1014FC000004014080B483B000AF78600B467B8061
:10150C0013467B707B78002B03D07A887B681A613A
:10151C0003E07B881A047B681A6100BF0C37BD4658
:10152C0080BC704780B586B000AF78607B68002BBC
:10153C0001D1012372E27B681B6803F00103002BCD
:10154C0000F08780924B5B6803F00C03042B0CD0EB
:10155C008F4B5B6803F00C03082B12D18C4B5B6830
:10156C0003F48033B3F5803F0BD1894B1B6803F434
:10157C000033002B6CD07B685B68002B68D1012397
:10158C004CE27B685B68B3F5803F06D1804B1B68EF
:10159C007F4A43F4803313602EE07B685B68002B3A
:1015AC000CD17B4B1B687A4A23F480331360784B45
:1015BC001B68774A23F4802313601DE07B685B680B
:1015CC00B3F5A02F0CD1724B1B68714A43F48023E6
:1015DC0013606F4B1B686E4A43F4803313600BE04F
:1015EC006B4B1B686A4A23F480331360684B1B688F
:1015FC00674A23F4802313607B685B68002B13D04D
:10160C00FFF7EAFC386108E0FFF7E6FC02463B69AD
:10161C00D31A642B01D9032300E25D4B1B6803F43E
:10162C000033002BF0D014E0FFF7D6FC386108E053
:10163C00FFF7D2FC02463B69D31A642B01D9032372
:10164C00ECE1534B1B6803F40033002BF0D100E0AA
:10165C0000BF7B681B6803F00203002B63D04C4B6C
:10166C005B6803F00C03002B0BD0494B5B6803F059
:10167C000C03082B1CD1464B5B6803F48033002B06
:10168C0016D1434B1B6803F00203002B05D07B687B
:10169C001B69012B01D00123C0E13D4B1B6823F0DA
:1016AC00F8027B685B69DB00394913430B603AE055
:1016BC007B681B69002B20D0364B01221A60FFF788
:1016CC008BFC386108E0FFF787FC02463B69D31AB4
:1016DC00022B01D90323A1E12D4B1B6803F002035C
:1016EC00002BF0D02A4B1B6823F0F8027B685B6957
:1016FC00DB00274913430B6015E0264B00221A60D0
:10170C00FFF76AFC386108E0FFF766FC02463B69AC
:10171C00D31A022B01D9032380E11D4B1B6803F064
:10172C000203002BF0D17B681B6803F00803002B2D
:10173C003AD07B689B69002B19D0174B01221A6099
:10174C00FFF74AFC386108E0FFF746FC02463B69AC
:10175C00D31A022B01D9032360E10D4B5B6A03F012
:10176C000203002BF0D0012000F09CFA1CE00A4B85
:10177C0000221A60FFF730FC38610FE0FFF72CFCF9
:10178C0002463B69D31A022B08D9032346E100BF5A
:10179C00001002400000424280044242924B5B6ABD
:1017AC0003F00203002BE9D17B681B6803F00403F0
:1017BC00002B00F0A6800023FB758B4BDB6903F03C
:1017CC008053002B0DD1884BDB69874A43F0805343
:1017DC00D361854BDB6903F08053BB60BB6801238D
:1017EC00FB75824B1B6803F48073002B18D17F4B65
:1017FC001B687E4A43F480731360FFF7EDFB38617E
:10180C0008E0FFF7E9FB02463B69D31A642B01D9C8
:10181C00032303E1754B1B6803F48073002BF0D09A
:10182C007B68DB68012B06D16F4B1B6A6E4A43F059
:10183C00010313622DE07B68DB68002B0CD16A4B33
:10184C001B6A694A23F001031362674B1B6A664AE1
:10185C0023F0040313621CE07B68DB68052B0CD1BE
:10186C00614B1B6A604A43F0040313625E4B1B6AB4
:10187C005D4A43F0010313620BE05B4B1B6A5A4A4F
:10188C0023F001031362584B1B6A574A23F00403DD
:10189C0013627B68DB68002B15D0FFF79DFB38616A
:1018AC000AE0FFF799FB02463B69D31A41F28832F2
:1018BC00934201D90323B1E04B4B1B6A03F00203A3
:1018CC00002BEED014E0FFF787FB38610AE0FFF73E
:1018DC0083FB02463B69D31A41F28832934201D909
:1018EC0003239BE0404B1B6A03F00203002BEED159
:1018FC00FB7D012B05D13C4BDB693B4A23F080532C
:10190C00D3617B68DB69002B00F08780364B5B680A
:10191C0003F00C03082B61D07B68DB69022B46D1EA
:10192C00334B00221A60FFF757FB386108E0FFF7D2
:10193C0053FB02463B69D31A022B01D903236DE0FA
:10194C00294B1B6803F00073002BF0D17B681B6ADA
:10195C00B3F5803F08D1244B5B6823F400327B68DD
:10196C009B68214913434B601F4B5B6823F4741233
:10197C007B68196A7B685B6A0B431B4913434B609A
:10198C001B4B01221A60FFF727FB386108E0FFF7B9
:10199C0023FB02463B69D31A022B01D903233DE0FA
:1019AC00114B1B6803F00073002BF0D035E0104B8B
:1019BC0000221A60FFF710FB386108E0FFF70CFB00
:1019CC0002463B69D31A022B01D9032326E0064BAE
:1019DC001B6803F00073002BF0D11EE07B68DB6901
:1019EC00012B07D1012319E00010024000700040C8
:1019FC00600042420B4B5B68FB60FB6803F4803277
:101A0C007B681B6A9A4206D1FB6803F470127B68F0
:101A1C005B6A9A4201D0012300E000231846183774
:101A2C00BD4680BD0010024080B584B000AF786028
:101A3C0039607B68002B01D10123D0E06A4B1B6815
:101A4C0003F007033A689A4210D9674B1B6823F0DE
:101A5C00070265493B6813430B60634B1B6803F03B
:101A6C0007033A689A4201D00123B8E07B681B68EF
:101A7C0003F00203002B20D07B681B6803F00403E7
:101A8C00002B05D0594B5B68584A43F4E063536014
:101A9C007B681B6803F00803002B05D0534B5B6875
:101AAC00524A43F460535360504B5B6823F0F0028E
:101ABC007B689B684D4913434B607B681B6803F044
:101ACC000103002B40D07B685B68012B07D1474B8F
:101ADC001B6803F40033002B15D101237FE07B68D6
:101AEC005B68022B07D1414B1B6803F00073002B82
:101AFC0009D1012373E03D4B1B6803F00203002B5B
:101B0C0001D101236BE0394B5B6823F003027B6846
:101B1C005B68364913434B60FFF75EFAF8600AE0E6
:101B2C00FFF75AFA0246FB68D31A41F28832934205
:101B3C0001D9032353E02D4B5B6803F00C027B6847
:101B4C005B689B009A42EBD1274B1B6803F00703A1
:101B5C003A689A4210D2244B1B6823F007022249A0
:101B6C003B6813430B60204B1B6803F007033A6878
:101B7C009A4201D0012332E07B681B6803F0040316
:101B8C00002B08D0194B5B6823F4E0627B68DB68A0
:101B9C00164913434B607B681B6803F00803002B4A
:101BAC0009D0124B5B6823F460527B681B69DB0025
:101BBC000E4913434B6000F021F802460B4B5B6857
:101BCC001B0903F00F030A49CB5C22FA03F3094A01
:101BDC001360094B1B681846FFF7BCF90023184625
:101BEC001037BD4680BD00BF0020024000100240EF
:101BFC005C1D0008000000200400002080B487B0A9
:101C0C0000AF0023FB600023BB6000237B6100233B
:101C1C007B6000233B611E4B5B68FB60FB6803F041
:101C2C000C03042B02D0082B03D027E0194B3B618B
:101C3C0027E0FB689B0C03F00F03174AD35C7B6017
:101C4C00FB6803F48033002B10D0114B5B685B0CEA
:101C5C0003F00103114AD35CBB607B680D4A03FBA4
:101C6C0002F2BB68B2FBF3F37B6104E07B680C4AC5
:101C7C0002FB03F37B617B693B6102E0054B3B613B
:101C8C0000BF3B6918461C37BD4680BC704700BF7F
:101C9C000010024000127A006C1D00087C1D000828
:101CAC0000093D0080B485B000AF78600A4B1B681A
:101CBC000A4AA2FB03235B0A7A6802FB03F3FB606C
:101CCC0000BFFB685A1EFA60002BF9D100BF00BFA1
:101CDC001437BD4680BC704700000020D34D621005
:101CEC0003460244934200D1704703F8011BF9E705
:101CFC0070B500260C4D0D4C641BA410A64209D1E6
:101D0C0000F01AF800260A4D0A4C641BA410A642D7
:101D1C0005D170BD55F8043B98470136EEE755F8F0
:101D2C00043B98470136F2E7801D0008801D00082F
:101D3C00801D0008841D0008F8B500BFF8BC08BC65
:101D4C009E467047F8B500BFF8BC08BC9E4670476D
:101D5C00000000000000000001020304060708094F
:101D6C0002030405060708090A0B0C0D0E0F1010D0
:041D7C000102000060
:041D80003101000825
:041D84000D01000845
:0C1D880000127A001000000001000000B2
:0400000508000EE9F8
:00000001FF
